:100000000C945E000C9486000C9486000C94A10A5B
:100010000C94A10A0C94A10A0C9486000C948600FE
:100020000C9486000C9486000C9486000C94CA0BE9
:100030000C9486000C9486000C9486000C94860028
:100040000C94FF090C9486000C946F0A0C94490AD6
:100050000C9486000C9486000C9486000C94860008
:100060000C94AB0A0C9486000000000024002700CA
:100070002A0000000000250028002B0004040404CE
:100080000404040402020202020203030303030342
:10009000010204081020408001020408102001021F
:1000A00004081020000000080002010000030407FB
:1000B0000000000000000000860C7D1411241FBE0B
:1000C000CFEFD8E0DEBFCDBF13E0A0E0B1E0ECE6BB
:1000D000FFE202C005900D92AC38B107D9F725E0D8
:1000E000ACE8B3E001C01D92AC34B207E1F710E018
:1000F000CDE5D0E004C02197FE010E944915CC3522
:10010000D107C9F70E94100D0C94A9170C94000098
:100110008F929F92AF92BF92FF920F931F93CF93B4
:10012000DF93F09036052BE02F1508F44CC020919A
:10013000380508E512E0021B110927FD1395000F91
:10014000111F000F111F20913705C8E8D0E0C21B16
:10015000D10927FDD395CC0FDD1FCC0FDD1F4E013C
:100160000D2E000CAA08BB089801012E000C440BB0
:10017000550B281939094A095B09DC010E94CD1485
:1001800024EB30E040E050E00E94A314820E931E66
:10019000A41EB51E8C169D062CF0E8018016910653
:1001A0000CF4E4012297CC0FDD1F2FB7F8948F2DAC
:1001B00090E0FC01EE0FFF1FE80FF91FE55FFA4F1B
:1001C000D283C1832FBFDF91CF911F910F91FF90F9
:1001D000BF90AF909F908F90089590E0FC01EC55F8
:1001E000FF4F2491FC01E057FF4F3491FC01E4588C
:1001F000FF4FE491EE23C9F0222339F0233001F1BF
:10020000A8F4213019F1223029F1F0E0EE0FFF1FA0
:10021000EE58FF4FA591B4918FB7F894EC9161110E
:1002200026C030953E233C938FBF08952730A9F018
:100230002830C9F0243049F7809180008F7D03C0B9
:10024000809180008F7780938000DFCF84B58F7797
:1002500084BDDBCF84B58F7DFBCF8091B0008F77DD
:100260008093B000D2CF8091B0008F7DF9CF3E2B2C
:10027000DACFCF93DF9390E0FC01E057FF4F24915A
:1002800084589F4FFC0184918823D1F090E0880F1F
:10029000991FFC01E859FF4FA591B491FC01EE585C
:1002A000FF4FC591D491623071F49FB7F8943C919F
:1002B000822F809583238C93E8812E2B28839FBFE8
:1002C000DF91CF9108958FB7F894EC912E2B2C935A
:1002D0008FBFF6CF3FB7F89480910E0490910F0432
:1002E000A0911004B091110426B5A89B05C02F3F22
:1002F00019F00196A11DB11D3FBFBA2FA92F982F4C
:100300008827BC01CD01620F711D811D911D42E046
:10031000660F771F881F991F4A95D1F708958F920E
:100320009F92AF92BF92CF92DF92EF92FF924B01DA
:100330005C010E946A016B017C010E946A016C19D8
:100340007D098E099F09683E734081059105A8F3D8
:1003500021E0821A9108A108B10888EEC80E83E056
:10036000D81EE11CF11C81149104A104B10429F7E9
:10037000FF90EF90DF90CF90BF90AF909F908F90C5
:1003800008952FB7F89460910A0470910B0480913E
:100390000C0490910D042FBF0895089508950895B9
:1003A000AF92BF92CF92DF92EF92FF920F931F9383
:1003B000CF93DF936C017B018B01040F151FEB01C1
:1003C0005E01AE18BF08C017D10759F06991D60178
:1003D000ED91FC910190F081E02DC6010995892BEA
:1003E00079F7C501DF91CF911F910F91FF90EF90A9
:1003F000DF90CF90BF90AF900895FC01538D448D56
:10040000252F30E0842F90E0821B930B541710F0BF
:10041000CF96089501970895FC01918D828D9817CC
:1004200061F0A28DAE0FBF2FB11D5D968C91928DA4
:100430009F5F9F73928F90E008958FEF9FEF0895D5
:100440000F931F930E94C10160936A0470936B0421
:1004500080936C0490936D0482E694E00E940C02F9
:1004600097FF1DC00E94C10100916A0410916B04A6
:1004700020916C0430916D04601B710B820B930B07
:10048000009166041091670420916804309169041A
:100490006017710782079307F8F28FEF9FEF1F91A4
:1004A0000F910895FC01918D828D981731F0828D06
:1004B000E80FF11D858D90E008958FEF9FEF08956F
:1004C000FC01918D228D892F90E0805C9F4F821BD3
:1004D00091098F739927089582E694E00E94600243
:1004E00021E0892B09F420E0822F089580E090E03C
:1004F000892B29F00E946C0281110C940000089550
:10050000FC01A48DA80FB92FB11DA35ABF4F2C9188
:10051000848D90E001968F739927848FA689B7897F
:100520002C93A089B1898C91837080648C93938D76
:10053000848D981306C00288F389E02D80818F7D19
:1005400080830895EF92FF920F931F93CF93DF93D1
:10055000EC0181E0888F9B8D8C8D98131AC0E889FF
:10056000F989808185FF15C09FB7F894EE89FF89CE
:100570006083E889F98980818370806480839FBF6C
:1005800081E090E0DF91CF911F910F91FF90EF906C
:100590000895F62E0B8D10E00F5F1F4F0F7311277C
:1005A000E02E8C8D8E110CC00FB607FCFACFE889B7
:1005B000F989808185FFF5CFCE010E948002F1CFBD
:1005C000EB8DEC0FFD2FF11DE35AFF4FF0829FB72B
:1005D000F8940B8FEA89FB8980818062CFCFCF931B
:1005E000DF93EC01888D8823B9F0AA89BB89E8895B
:1005F000F9898C9185FD03C0808186FD0DC00FB601
:1006000007FCF7CF8C9185FFF2CF808185FFEDCF7E
:10061000CE010E948002E9CFDF91CF910895209111
:10062000CE03260F3327331F21323105ECF42091FE
:100630003804FC0190E080E0243069F082E0089505
:10064000A091CE032191AC0142555C4FA40FB52F70
:10065000B11D2C930196861798F38091CE03680FF5
:100660006093CE0380E0089581E0089510923804ED
:1006700081E0809337041092120461E082E10E94CD
:10068000ED0061E083E10E94ED00E9EBF0E08081A4
:100690008E7F808380818D7F808388E48093B80003
:1006A00085E48093BC000895CF93DF9391E090930D
:1006B000AD038823B9F0C091B800D091BA00809101
:1006C000BC008A7B8093BC0060E082E10E94ED0068
:1006D00060E083E10E94ED000E943603D093BA00EF
:1006E000C093B800DF91CF910895CF92DF92EF923F
:1006F000FF920F931F93CF93DF93D091610481E01A
:10070000D13208F09CC0C09160040E946A016B0164
:100710007C018091380481116CC082E080933804A0
:1007200081E0809337048FEF809336041092350474
:10073000D0933404A0E4B4E0E4E1F4E080E0D81322
:100740008DC01092130480911304CC0FC82BC0935A
:10075000130480911204813009F084C010921204B5
:100760000E946A016B017C01809113048093BB009D
:1007700080913A0490913B04A0913C04B0913D04D7
:10078000892B8A2B8B2BA1F00E946A0100913A04DD
:1007900010913B0420913C0430913D046C197D097B
:1007A0008E099F09061717072807390708F442C062
:1007B0008091BC0083FDD8CF85EC8093BC000E9463
:1007C0006A016B017C0180913804823009F44CC0CD
:1007D000809136048F3F09F469C0809136048032DD
:1007E00009F466C080913604803309F463C084E064
:1007F00026C080913A0490913B04A0913C04B091B2
:100800003D04892B8A2B8B2B09F483CF0E946A012C
:1008100000913A0410913B0420913C0430913D0436
:100820006C197D098E099F090617170728073907D4
:1008300008F06FCF809139040E94540385E0109234
:100840003F041092610410923E04DF91CF911F91FA
:100850000F91FF90EF90DF90CF9008959D9191932D
:100860008F5F6DCF85EEA9CF80913A0490913B04C4
:10087000A0913C04B0913D04892B8A2B8B2B09F469
:10088000A2CF0E946A0100913A0410913B0420918A
:100890003C0430913D046C197D098E099F090617AF
:1008A00017072807390708F08ECFC4CF80E0C7CFDD
:1008B00082E0C5CF83E0C3CF0895E091F803809133
:1008C000F703E81730F4F0E0E357FC4F808190E045
:1008D00008958FEF9FEF08959091F8038091F703AB
:1008E0002FEF3FEF981748F4E92FF0E0E357FC4F64
:1008F000208130E09F5F9093F803C90108958091B3
:10090000F7039091F803891B990B0895CF92DF921A
:10091000EF92FF920F931F93CF93DF937C01CB0154
:100920008A0120913E04222389F0EB016B01C40E61
:10093000D51ECC15DD0569F06991D701ED91FC91CB
:100940000190F081E02DC7010995F3CF642F0E943B
:100950000F03C801DF91CF911F910F91FF90EF908E
:10096000DF90CF900895CF93DF931F92CDB7DEB77E
:10097000698320913E042223F9F020916104203202
:1009800058F021E030E0FC013383228390E080E0E6
:100990000F90DF91CF91089580913F04E82FF0E010
:1009A000E05CFB4F998190838F5F80933F0480933D
:1009B000610481E090E0ECCF61E0CE0101960E94FD
:1009C0000F03F7CFCF93DF93EB01FC01828591E01A
:1009D00090933E048093600410923F04109261044F
:1009E00068818FEF94E00E94B30465E070E080E0DE
:1009F00090E00E948F0169818FEF94E00E94B30420
:100A000065E070E080E090E00E948F01DF91CF917F
:100A10000C947503CF93DF9300D01F92CDB7DEB750
:100A20001B8290E899838A83BE016F5F7F4F89E3C1
:100A300095E00E94E2040F900F900F90DF91CF910C
:100A40000895CF93C62F9091440521E020933E0452
:100A50009093600410923F0410926104682F8FEF0E
:100A600094E00E94B3046C2F8FEF94E00E94B304D3
:100A7000CF910C947503CF93DF9300D01F92CDB725
:100A8000DEB71B8220E429836A83BE016F5F7F4F3C
:100A90000E94E20481E090E00F900F900F90DF91B0
:100AA000CF91089590E080E00895892B79F4109219
:100AB000800082E080938100109285001092840073
:100AC000B19A80916F00826080936F00089560E01A
:100AD0008EE00E94ED0061E080E10C94ED0061E0A9
:100AE0008EE00E94ED0060E080E10C94ED00CF9379
:100AF000DF930E946F05C3E0D0E061E08FE00E94C9
:100B0000ED0066E970E080E090E00E948F0160E017
:100B10008FE00E94ED0066E970E080E090E00E94C6
:100B20008F01219751F7DF91CF910895CF93DF93F4
:100B3000DC0114962D913C911597232B79F0FB0144
:100B4000CD91DC9160817181CE010E948F17009759
:100B500029F08C1B9D0BDF91CF9108958FEF9FEFB4
:100B6000FACF0F931F93CF93DF93EC018881998184
:100B7000009759F02A813B812617370730F081E032
:100B8000DF91CF911F910F9108958B016F5F7F4F80
:100B90000E947416009759F0998388831B830A83F7
:100BA0002C813D81232B59F7FC011082E8CF80E096
:100BB000E7CFEF92FF920F931F93CF93DF936115CF
:100BC000710541F480E0DF91CF911F910F91FF906B
:100BD000EF90089541155105B1F07B01EC010C81B6
:100BE0001D81040F151FB8010E94B105882351F320
:100BF000288139818C819D81B701820F931F0E94CA
:100C000060171D830C8381E0DECFFB010190002083
:100C1000E9F73197AF01461B570BDC01ED91FC91D1
:100C20000280F381E02D0994CF93DF93FC0144818E
:100C300055816081718182E694E00E94D001EC01CF
:100C40006AEB71E082E694E00E9405068C0F9D1F1E
:100C5000DF91CF910895CF93DF93BC0182E694E0BA
:100C60000E940506EC016AEB71E082E694E00E94C6
:100C700005068C0F9D1FDF91CF910895AF92BF9213
:100C8000CF92DF92EF92FF920F931F93CF93DF9358
:100C9000DC01CD90DC901197C114D10439F0149689
:100CA000CD91DC918C017601209761F4DF91CF9199
:100CB0001F910F91FF90EF90DF90CF90BF90AF907A
:100CC000089575015701BFEFAB1ABB0AF701808188
:100CD000082E000C990B0E948114892B91F7219703
:100CE000CC0DDD1D8881082E000C990B0E9481140B
:100CF000892B29F0CE15DF0510F02197F3CFAE0137
:100D00004F5F5F4F4E195F09D80115965C934E9364
:100D10001497CE14DF0420F4B701C6010E943117E6
:100D2000D801ED91FC91119714968D919C91E80F4B
:100D3000F91F1082BBCFFB0144815581FC01248146
:100D400035812417350778F080819181009759F01B
:100D5000FB01608171816115710529F00E9467179F
:100D600021E0892B09F020E0822F0895FC012481E5
:100D70003581232B39F421E0FB018081882349F060
:100D800020E007C0808191810E94571721E0892BC4
:100D9000B9F7822F08950F931F93CF93DF938C01A0
:100DA000EB01FC01808191810097E1F068817981FC
:100DB00061157105A9F0428153812C813D81421753
:100DC000530770F00E9460178C819D81F801958314
:100DD00084831D821C82DF91CF911F910F91089512
:100DE0000E94EB1588819981F801918380838A8123
:100DF0009B81938382838C819D81958384831982D7
:100E000018821B821A82E5CFCF93DF93EC01888191
:100E10009981009711F00E94EB15198218821D82AA
:100E20001C821B821A82DF91CF910895CF93DF93AA
:100E3000EC01FB0144815581608171810E94D905DB
:100E4000811103C0CE010E940407CE01DF91CF9132
:100E50000895EF92FF920F931F93CF93DF93EC01CE
:100E60007B018A01BA010E94B10581110BC0CE013C
:100E70000E940407CE01DF91CF911F910F91FF9047
:100E8000EF9008951D830C83B701888199810E949A
:100E90006017F0CFFB0101900020E9F73197AF0117
:100EA000461B570B0C942907FC01118210821382F8
:100EB000128215821482FB0101900020E9F731971C
:100EC000AF01461B570B0C942907AF92BF92CF92EC
:100ED000DF92EF92FF920F931F93CF93DF936C01FA
:100EE0005B017A0189012417350720F48F2D7901E0
:100EF000042F182F6CEB71E0C6010E945407D50136
:100F00001496CD91DC91EC16FD06E0F40C171D074C
:100F100008F4E801D501ED91FC911197EC0FFD1F4C
:100F2000108110826D917C916E0D7F1DC60161153F
:100F30007105A1F00E944A07F50180819181C80FD7
:100F4000D91F1883C601DF91CF911F910F91FF9098
:100F5000EF90DF90CF90BF90AF9008950E9404076C
:100F6000EBCFFC0180819181009711F00C94EB157F
:100F70000895AF92BF92CF92DF92EF92FF920F93BC
:100F80001F93CF93DF9300D000D000D0CDB7DEB752
:100F90005C016B017A011B8210E819831A83BE0180
:100FA0006F5F7F4F89E395E00E94E2046DEB71E093
:100FB00089E395E00E9405061B82198300EC0A83F1
:100FC000BE016F5F7F4F89E395E00E94E2046DEB05
:100FD00071E089E395E00E9405061B8219831A835C
:100FE000BE016F5F7F4F89E395E00E94E2046EECE3
:100FF00071E0CE0101960E945407B501CE01019621
:101000000E941607FC01448155816081718189E34A
:1010100095E00E94D001CE0101960E94B1071B828B
:1010200019830A83BE016F5F7F4F89E395E00E94B9
:10103000E20465ED71E0CE0101960E945407B6010D
:10104000CE0101960E9416078C0145E050E068ED44
:1010500071E00E94D905811103C0C8010E940407F4
:10106000B701C8010E941607FC01448155816081C7
:10107000718189E395E00E94D001CE0101960E9422
:10108000B1078EED91E00E942B066EEC71E0CE016F
:1010900001960E945407B501CE0101960E941607E1
:1010A0000E941406CE0101960E94B10763EF71E021
:1010B000CE0101960E945407B601CE0101960E940E
:1010C00016070E941406CE0101960E94B10760E047
:1010D00072E0CE0101960E945407B701CE0101963D
:1010E0000E9416070E941406CE0101960E94B107C5
:1010F00026960FB6F894DEBF0FBECDBFDF91CF911D
:101100001F910F91FF90EF90DF90CF90BF90AF9025
:10111000089585ED8093BC0080913A0490913B0442
:10112000A0913C04B0913D040796A11DB11D23E0A0
:10113000B695A795979587952A95D1F72091BC00EC
:1011400024FD03C010923804089540913A04509150
:101150003B0460913C0470913D04452B462B472B8A
:1011600069F30097A105B10541F02AE22A95F1F74C
:1011700000C00197A109B109E1CF809139040C9415
:101180005403CF92DF92EF92FF920F931F93CF936E
:10119000DF93EB017B0125E1E20EF11C8B016C0179
:1011A000C61AD70AC601800F911F0E948D14F8013C
:1011B00081938F01EE15FF05A9F7CE01DF91CF9145
:1011C0001F910F91FF90EF90DF90CF900895EF92D5
:1011D000FF920F931F93CF93DF93CDB7DEB7AD97F9
:1011E0000FB6F894DEBF0FBECDBF8C01BE016F5F9E
:1011F0007F4F0E94C10889818F5F823030F46BE09D
:1012000072E0CE0101960E9460176BE072E0CE01A1
:1012100001960E945717E0900001F0900101892B80
:10122000E1F50E151F0561F161E172E0CE018296D4
:101230000E94540767E072E0CE014C960E9454076A
:101240006BE072E0CE0146960E945407AE014E5DFF
:101250005F4FBE01645E7F4FCE0146960E94B90784
:10126000CE0146960E94B107CE014C960E94B1076E
:10127000CE0182960E94B1071093010100930001F4
:10128000AD960FB6F894DEBF0FBECDBFDF91CF9104
:101290001F910F91FF90EF900895698982E00E945D
:1012A000ED006A8984E00E94ED006B8983E00E9472
:1012B000ED006C8985E00E94ED006D8986E00E945A
:1012C000ED00688989E00E94ED000E151F05C1F24E
:1012D0006CEB71E0CE0146960E94540729898A89F9
:1012E000422F480F5527551F2B89240F352F311DAD
:1012F0008C89280F311D8D89820F932F911D67E0F6
:1013000072E0009731F069E473E0059711F06EE147
:1013100072E0CE0146960E944A0719A618A61BA69F
:101320001AA61DA61CA66E897F896115710531F06C
:101330004A8D5B8DCE0188960E942907888969E4D1
:1013400073E0813011F067E072E0CE0182960E9476
:101350005407BE016F5F7F4FCE014C960E94540729
:10136000AE01485D5F4FBE016E5D7F4FCE014C9672
:101370000E94B907CE014C960E94B107CE01829619
:101380000E94B107CE0188960E94B1071093010117
:1013900000930001CE0146960E94B10771CF9F9243
:1013A000AF92BF92CF92DF92EF92FF920F931F9373
:1013B000CF93DF935C017B018B01D0E0C0E0F801AB
:1013C00091908F016501CC0EDD1EC6010E948D1427
:1013D000981621F0692DC6010E9495142196C531F9
:1013E000D10569F7C701DF91CF911F910F91FF9050
:1013F000EF90DF90CF90BF90AF909F9008951F9295
:101400000F920FB60F9211242F933F938F939F93B8
:10141000AF93BF9380910A0490910B04A0910C04A8
:10142000B0910D043091090423E0230F2D3758F5B6
:101430000196A11DB11D2093090480930A04909385
:101440000B04A0930C04B0930D0480910E049091B2
:101450000F04A0911004B09111040196A11DB11DBB
:1014600080930E0490930F04A0931004B093110482
:10147000BF91AF919F918F913F912F910F900FBE90
:101480000F901F90189526E8230F0296A11DB11DFD
:10149000D2CF1F920F920FB60F9211242F933F932A
:1014A0004F935F936F937F938F939F93AF93BF936C
:1014B000EF93FF9382E694E00E948002FF91EF9108
:1014C000BF91AF919F918F917F916F915F914F915C
:1014D0003F912F910F900FBE0F901F9018951F9264
:1014E0000F920FB60F9211242F938F939F93EF9328
:1014F000FF93E0917204F09173048081E09178048D
:10150000F091790482FD1BC0908180917B048F5FF4
:101510008F7320917C04821741F0E0917B04F0E00E
:10152000EE59FB4F958F80937B04FF91EF919F9134
:101530008F912F910F900FBE0F901F901895808163
:10154000F4CF1F920F920FB60F9211240F900FBE7F
:101550000F901F9018951F920F920FB60F921124A3
:101560002F933F934F935F936F937F938F939F93AB
:10157000AF93BF93EF93FF938091B900887F80363C
:1015800009F44AC0F0F5883209F4A7C018F5803193
:1015900009F49BC0B8F4882309F4F9C0883009F431
:1015A00094C0FF91EF91BF91AF919F918F917F91E7
:1015B0006F915F914F913F912F910F900FBE0F90C0
:1015C0001F901895883109F488C0803251F78093B4
:1015D000360414C0803409F49DC040F48033B9F35C
:1015E0008833F9F68093360485ECB0C0803509F471
:1015F00085C0883509F496C0883499F60E94890818
:10160000D0CF883909F48CC038F5883729F050F4E8
:10161000883611F0803729F683E0809338041092E1
:10162000F00357C0883809F47BC0803919F080383E
:1016300009F0B7CF8091F003803208F071C0E091DB
:10164000F00381E08E0F8093F0038091BB00F0E007
:10165000E053FC4F80833DC0803B39F0E0F4803A9A
:1016600009F479C0883A09F09CCF84E0809338046B
:101670001092CF031092CE03E091F503F091F603A0
:1016800009958091CE0381110FC081E08093CE0334
:101690001092AE0309C0803C09F4A6CF883C09F43F
:1016A000A3CF883B09F07DCFE091CF0381E08E0F7F
:1016B0008093CF03F0E0E255FC4F80818093BB0024
:1016C0009091CF038091CE0329C080911304809321
:1016D000BB0085EC8093BC0064CF90913504809171
:1016E0003404981758F5E091350481E08E0F80930B
:1016F0003504F0E0EC5EFB4F8081E9CFE0913504EA
:1017000081E08E0F809335048091BB00F0E0EC5EA9
:10171000FB4F808390913504809134049817C8F270
:1017200085E8D8CFE091350481E08E0F80933504B1
:101730008091BB00F0E0EC5EFB4F8083809137042A
:1017400081115CCF81E08093120484EA8093BC0015
:101750001092380426CF85EC8093BC001092380498
:101760008091F003803230F4E091F003F0E0E05338
:10177000FC4F10826091F00370E0E091F303F09170
:10178000F40380ED93E009951092F0030ACF1092D4
:10179000360434CF1F920F920FB60F9211242F935D
:1017A0003F934F935F936F937F938F939F93AF93E9
:1017B000BF93CF93DF93EF93FF9380918C03C091FE
:1017C0002F05D0E087FF24C010928500109284007E
:1017D00080918C038F5F80938C0380918C03082E03
:1017E000000C990B8C179D0724F480918C038C308E
:1017F000C4F18091840090918500049680349C49C6
:1018000008F47AC08091840090918500049676C097
:1018100080918C03082E000C990B8C179D07C4F641
:10182000E0918C038E2FEE0F990BFC01EE0FFF1F42
:10183000E80FF91FE55FFA4F808186FFC9CFE0917D
:101840008C038E2FEE0F990BFC01EE0FFF1FE80F9C
:10185000F91FE55FFA4F808160E08F730E94ED0011
:10186000B7CF2091840030918500E0918C038E2FBA
:10187000EE0F990BFC01EE0FFF1FE80FF91FE55F5C
:10188000FA4F81819281820F931F909389008093F8
:101890008800E0918C038E2FEE0F990BFC01EE0F68
:1018A000FF1FE80FF91FE55FFA4F808186FF11C027
:1018B000E0918C038E2FEE0F990BFC01EE0FFF1FB2
:1018C000E80FF91FE55FFA4F808161E08F730E9496
:1018D000ED00FF91EF91DF91CF91BF91AF919F917B
:1018E0008F917F916F915F914F913F912F910F90C9
:1018F0000FBE0F901F90189580E49CE9909389008B
:10190000809388008FEF80938C03E3CF109265045F
:101910001092640488EE93E0A0E0B0E08093660447
:1019200090936704A0936804B09369042EE831E0B3
:10193000309363042093620425EC30E030936F040D
:1019400020936E0424EC30E03093710420937004F3
:1019500020EC30E0309373042093720421EC30E0EB
:10196000309375042093740422EC30E030937704B4
:101970002093760426EC30E03093790420937804A9
:1019800010927B0410927C0410927D0410927E04CD
:1019900010920205109201058093030590930405AF
:1019A000A0930505B093060580EA91E090930005A9
:1019B0008093FF0410923C0510923B0582EB91E06E
:1019C00090933A05809339058EE38093430580E632
:1019D0008093440580E18093450582E0809346052D
:1019E00080912F058C30C0F491E0980F90932F05D3
:1019F0008093360590E0FC01EE0FFF1FE80FF91F02
:101A0000E55FFA4F88EB9BE0928381836CEB71E09A
:101A100080E395E00C9454078FEF80933605F6CF62
:101A2000CF93DF93CDB7DEB7C559D1090FB6F89480
:101A3000DEBF0FBECDBF789484B5826084BD84B50F
:101A4000816084BD85B5826085BD85B5816085BDB9
:101A500080916E00816080936E0010928100809171
:101A600081008260809381008091810081608093F9
:101A70008100809180008160809380008091B1001E
:101A800084608093B1008091B00081608093B00049
:101A900080917A00846080937A0080917A008260DD
:101AA00080937A0080917A00816080937A0080919F
:101AB0007A00806880937A001092C1008091360588
:101AC0008C3008F045C061E088E00E9439018091C7
:101AD0003605282F30E0F901EE0FFF1FE20FF31F4C
:101AE000E55FFA4F9081907C986090839EE8909398
:101AF000370594E6909338052CE0622F0E943D153F
:101B000090E0829FB001112430E020E0AB01420F51
:101B1000531FFA01EE0FFF1FE40FF51FE55FFA4FA9
:101B2000408146FD07C02F5F3F4F2C30310571F7D4
:101B30000E945505E09136058E2F90E0FC01EE0FD6
:101B4000FF1FE80FF91FE55FFA4F808180648083F3
:101B500061E08EE00E94390161E08FE00E9439016E
:101B600061E080E10E94390161E08EE00E94ED00B9
:101B700060E08FE00E94ED0060E080E10E94ED00F7
:101B8000E0917204F091730482E08083E0916E042E
:101B9000F0916F041082E0917004F09171048FEC69
:101BA000808310927A04E0917604F091770486E0C5
:101BB0008083E0917404F09175048081806180835A
:101BC000E0917404F0917504808188608083E091D5
:101BD0007404F0917504808180688083E0917404BE
:101BE000F091750480818F7D80831092F8031092AC
:101BF000F70310923F04109261040E9436038DECAB
:101C000091E09093F6038093F5038EEC91E090932E
:101C1000F4038093F30310923D05809146058230D2
:101C200018F098E090933D0580934105109242058D
:101C300062E370E080E090E00E948F0180913D05BA
:101C400080620E940A0565E070E080E090E00E94FA
:101C50008F0180913D0580620E940A0565E070E079
:101C600080E090E00E948F0180913D0580620E949B
:101C70000A0584E080933E058CE00E940A0581E01D
:101C80000E940A058BE39FE10197F1F782E08093C0
:101C90003F0586E00E940A0560E080E00E94210581
:101CA0006FEF88E00E94210560E281E00E9421053B
:101CB0006FEF84E00E9421056FEF83E00E94210511
:101CC0006FEF82E00E9421056FEF84E00E94210502
:101CD00060E083E00E94210560E082E00E9421052F
:101CE00067E072E0CE0101960E94540767E072E05F
:101CF000CE0146960E94540765E272E0CE018B96B3
:101D00000E945407AE014F5F5F4FBE016A5E7F4F76
:101D1000CE018B960E94B907CE018B960E94B10727
:101D2000CE0146960E94B107CE0101960E94B107EE
:101D300061E082E00E94390161E084E00E943901A3
:101D400061E083E00E94390161E085E00E94390191
:101D500061E086E00E94390161E089E00E9439017A
:101D600062E087E00E943901809136058C3008F0EE
:101D700043C061E088E00E94390180913605282F38
:101D800030E0F901EE0FFF1FE20FF31FE55FFA4F9E
:101D90009081907C9860908310923705109238055E
:101DA0002CE0622F0E943D1590E0829FB00111242B
:101DB00030E020E0AB01420F531FFA01EE0FFF1F8E
:101DC000E40FF51FE55FFA4F408146FD07C02F5F26
:101DD0003F4F2C30310571F70E945505E0913605D3
:101DE0008E2F90E0FC01EE0FFF1FE80FF91FE55F5B
:101DF000FA4F80818064808360E082E00E94ED0081
:101E000060E084E00E94ED0060E083E00E94ED006D
:101E100060E085E00E94ED0060E086E00E94ED0059
:101E200060E089E00E94ED001092FE0385E1ECE0A5
:101E3000F1E0DE01A158BF4F01900D928A95E1F7C4
:101E400085E1E1E2F1E0DE01A659BF4F01900D927C
:101E50008A95E1F785E1E6E3F1E0DE01AB5ABF4F99
:101E600001900D928A95E1F785E1EBE4F1E0DE0166
:101E7000A05CBF4F01900D928A95E1F785E1E0E605
:101E8000F1E0DE019B9601900D928A95E1F7BE018B
:101E900061587F4F90E080E00E94CF09BE016659F3
:101EA0007F4F8EE190E00E94CF09BE016B5A7F4FB9
:101EB0008CE390E00E94CF09BE01605C7F4F8AE511
:101EC00090E00E94CF09BE01655D7F4F88E790E0FA
:101ED0000E94CF0985E1E5E7F1E0DE01119601906E
:101EE0000D928A95E1F7BE016A5E7F4F86E990E028
:101EF0000E94C1088E898F5F823038F4BE016F5F07
:101F00007F4F86E990E00E94CF09BE016A5E7F4F55
:101F100084EB90E00E94C1088E898F5F823038F494
:101F2000BE016F5F7F4F84EB90E00E94CF090E945B
:101F3000C101609305047093060480930704909395
:101F4000080481E392E00E942B0622E0422E512CED
:101F500082E694E00E946002181619060CF0F7C39E
:101F60006CEB71E0CE018B960E9454070E94200218
:101F700097FD0FC08A30910561F089831A8241E094
:101F800050E0BE016F5F7F4FCE018B960E94D90556
:101F9000EDCF6CEB71E0CE0101960E94540763E730
:101FA00072E0CE0146960E945407AFA4B8A8A114CF
:101FB000B10409F461C08A8C9B8C8114910409F4EA
:101FC0005BC0ED80FE80E818F9080BA51CA5E114A4
:101FD000F104A1F46E897F89C8010E948F178C01DA
:101FE000009709F449C069817A814D815E810E9420
:101FF00031178D819E81080F191FECCFF7FC0FC0A0
:102000006E887F886501C801B3010E948F17009711
:1020100009F4ECC0880D991DCE0CDF1CF5CF6801CA
:102020006E897F89C8010E948F174C01009701F1CA
:102030005C01A01AB10AA501B801C6010E943117BE
:10204000CA0CDB1C69817A814D815E81C6010E94C8
:1020500031178D819E81C80ED91E0A8D1B8D080DEA
:10206000191D8FA598A98E0D9F1D98AB8FA7D8CF4E
:10207000B801C6010E946017CE0146960E94B107C2
:10208000CE0101960E94B107CE018B960E943E06BA
:1020900065E772E0CE018B960E94B606811127C1DA
:1020A00061E872E0CE018B960E94B606811123C1D1
:1020B0006FE872E0CE018B960E94B60681111BC1BB
:1020C0006AE972E0CE018B960E94B606811113C1B7
:1020D00068EA72E0CE018B960E94B60681110BC1B0
:1020E00064EB72E0CE018B960E94B606811103C1AB
:1020F00062EC72E0CE018B960E94B6068111FBC0A5
:1021000060ED72E0CE0101960E945407BE016F5F40
:102110007F4FCE018B960E9496058C01CE010196D1
:102120000E94B1070F3F1007C9F0980150E040E04E
:10213000BE01655D7F4FCE0101960E946507BE011D
:102140006F5F7F4FCE018B960E94CB06CE0101962A
:102150000E94B107CE018B960E943E068FA598A9DA
:10216000892B09F42CC18091FC039091FD038130EF
:10217000910509F43FC108F427C1029709F01FC176
:1021800061E373E0CE0101960E945407BE016F5FC8
:102190007F4FCE018B960E949B06182FCE01019691
:1021A0000E94B107112309F4AAC169E473E0CE01CA
:1021B00001960E945407BE016F5F7F4FCE018B9640
:1021C0000E94960521E0019609F420E02093F9038E
:1021D000CE0101960E94B1078091FA039091FB0312
:1021E00001969093FB038093FA03E9C0AC14BD04FD
:1021F00009F442CF8DA59EA58C159D0568F4B60106
:102200006F5F7F4FC8010E947416009709F434CFA6
:102210009CA78BA7DEA6CDA60FA518A90150110972
:1022200017FD2ACF48016A8C7B8C6114710409F474
:1022300023CFAFA4B8A8A114B10409F41DCFA614EC
:10224000B70408F419CF0A151B0520F0450121E059
:10225000821A9108CBA4DCA44E895F89CC56DF4F4B
:1022600059834883C459D040C6010FEF1FEF1601B0
:10227000280C391C28163906A0F0CC56DF4F68818F
:102280007981C459D0400E948F17009751F09C016A
:102290002C193D098216930608F4980101968901CC
:1022A000E9CF17FDE9CE600E711EC601860D971DA0
:1022B000A50146195709BC018E0D9F1D0E943A17B2
:1022C0008FA598A98E0D9F1D98AB8FA72BA53CA518
:1022D000820F931FFC0110828BA59CA569817A81D6
:1022E0004D815E81800F911F0E94311797CF109210
:1022F00005011092040161E872E0CE018B960E9404
:10230000B606882331F081E090E090930501809338
:1023100004016FE872E0CE018B960E94B606882316
:1023200021F050920501409204016AE972E0CE0169
:102330008B960E94B606882339F093E0C92ED12CE3
:10234000D0920501C092040168EA72E0CE018B963A
:102350000E94B606882339F084E0E82EF12CF09232
:102360000501E092040164EB72E0CE018B960E94BD
:10237000B606882331F025E030E030930501209344
:10238000040162EC72E0CE018B960E94B6068823AF
:1023900031F046E050E050930501409304010E9463
:1023A000C101609305047093060480930704909321
:1023B00008040E94770583ED92E00E942B06CE016F
:1023C0008B960E94B107C4CD66ED72E0CE018B966C
:1023D0000E94B606882309F462C081E090E09093E1
:1023E000FD038093FC0390930301809302010E94FC
:1023F0006F05E5CF6FED72E0CE018B960E94B606B9
:10240000882359F01092FD031092FC0388EE92E0AD
:102410000E942B060E947705D2CF61E173E0CE01C6
:1024200001960E945407BE016F5F7F4FCE018B96CD
:102430000E949B06182FCE0101960E94B10711231E
:1024400009F4BDCFCFA4D8A8C114D10401F1EBA4E5
:10245000FCA462E270E0C7010E944C178C010E19C7
:102460001F09892B11F40FEF1FEFF701EC0DFD1D74
:10247000B0801082EBA4FCA462E270E0C7010E946D
:102480008417CE0CDF1CF601B082009759F48EE160
:1024900093E00E942B061092FD031092FC030E9411
:1024A00067058DCF2BA53CA5FC01E21BF30B9F011B
:1024B0000F3F100761F32F3F320749F3021713074D
:1024C00034F7A8014F5F5F4FBE01655D7F4FCE01BE
:1024D00001960E946507BE016F5F7F4F80E395E024
:1024E0000E94CB06CE0101960E94B1075092FD03D7
:1024F0004092FC031092FB031092FA0360CF6DE34D
:1025000073E0CE0101960E945407BE016F5F7F4FBA
:10251000CE018B960E949B06182FCE0101960E9439
:10252000B107112309F44BCF64E473E0CE010196A7
:102530000E945407BE016F5F7F4FCE018B960E94B1
:1025400096054C01CE0101960E94B1076CE473E040
:10255000CE0101960E945407BE016F5F7F4FCE01EE
:102560008B960E9496055C01CE0101960E94B107F0
:1025700067E573E0CE0101960E945407BE016F5FCC
:102580007F4FCE018B960E9496056C01CE0101967D
:102590000E94B10761E673E0CE0101960E945407E4
:1025A000BE016F5F7F4FCE018B960E949605772408
:1025B00073940196B1F46AE673E0CE0146960E94E8
:1025C0005407BE016A5E7F4FCE018B960E9496052E
:1025D00077247394019609F4712CCE0146960E94DB
:1025E000B107CE0101960E94B10762E773E0CE0108
:1025F00001960E945407BE016F5F7F4FCE018B96FC
:102600000E9496057C01CE0101960E94B10780913F
:10261000FA039091FB0301969093FB038093FA03D6
:10262000029709F0CCCE00913405109135050115C3
:10263000110509F046C01E8A8091020190910301A4
:102640008130910509F053C01091F9034EE050E03C
:10265000BE016A5E7F4FCE0101960E9475171F86EC
:10266000188B81E08920809409F480E0898B81E0D7
:10267000AB20A09409F480E08A8B81E0CD20C09447
:1026800009F480E08B8B7C8A81E0EF20E09409F4F0
:1026900080E08D8BBE016F5F7F4F86E990E00E94E6
:1026A000CF0980910201909103010196909303015B
:1026B0008093020181E090E09093FD038093FC03FE
:1026C0007ECE0E30110510F00EE010E06091300566
:1026D00070913105A801CE0146960E947517E6E17A
:1026E000F0E0EC0FFD1FE00FF11F1082A5CF029765
:1026F00009F71091F9034EE050E0BE016A5E7F4F8A
:10270000CE0101960E9475171F86188B81E08920E3
:10271000809409F480E0898B81E0AB20A09409F4D7
:1027200080E08A8B81E0CD20C09409F480E08B8B1F
:102730007C8A81E0EF20E09409F480E08D8BBE017B
:102740006F5F7F4F84EB90E00E94CF09B3CF0E9470
:10275000C1010091050410910604209107043091F5
:102760000804601B710B820B930B683B7B40810557
:10277000910560F08091FE0391E089278093FE032C
:102780008823B9F08AE590E00E948800E091040176
:10279000F0910501E730F10508F07CC0EE52FC4EE7
:1027A0000C944915DC1369146E14711474147714A5
:1027B0007A1490E080E0E8CF61E089E00E94ED00CB
:1027C0008091040481112BC060E873E0CE01019672
:1027D0000E94540769E473E0CE0146960E945407B4
:1027E0006AE772E0CE018B960E945407AE014F5FFC
:1027F0005F4FBE016A5E7F4FCE018B960E94B90784
:10280000CE018B960E94B107CE0146960E94B10779
:10281000CE0101960E94B10781E0809304040E94DA
:10282000C101009100041091010420910204309133
:1028300003046B017C01C01AD10AE20AF30A970172
:102840008601043611052105310520F1609300044D
:102850007093010480930204909303048091FF031A
:1028600091E089278093FF03882309F161E082E0EA
:102870000E94ED0061E083E00E94ED0061E086E0EF
:102880000E94ED0060E084E00E94ED0060E085E0E1
:102890000E94ED0080E090E0892B09F459CB0E9462
:1028A0006C02882309F454CB0E94000051CB60E0F5
:1028B00082E00E94ED0060E083E00E94ED0060E0B5
:1028C00086E00E94ED0061E084E00E94ED0061E09E
:1028D000DECF8EE190E00E94E708DCCF8CE390E051
:1028E000FACF8AE590E0F7CF88E790E0F4CF86E969
:1028F00090E0F1CF84EB90E0EECF80E395E00C9494
:10290000B10791110C948A14803219F089508550C6
:10291000C8F70895992788270895F999FECF92BDA1
:1029200081BDF89A992780B50895262FF999FECF91
:102930001FBA92BD81BD20BD0FB6F894FA9AF99ADC
:102940000FBE01960895052E97FB1EF400940E9479
:10295000BA1457FD07D00E940C1507FC03D04EF4A3
:102960000C94BA1450954095309521953F4F4F4F98
:102970005F4F089590958095709561957F4F8F4F2B
:102980009F4F08950E942E15A59F900DB49F900D06
:10299000A49F800D911D11240895B7FF0C94C214BB
:1029A0000E94C214821B930B08952F923F924F9264
:1029B0005F926F927F928F929F92AF92BF92CF92CF
:1029C000DF92EF92FF920F931F93CF93DF93CDB7D8
:1029D000DEB7CA1BDB0B0FB6F894DEBF0FBECDBF50
:1029E00009942A88398848885F846E847D848C8421
:1029F0009B84AA84B984C884DF80EE80FD800C812A
:102A00001B81AA81B981CE0FD11D0FB6F894DEBF0C
:102A10000FBECDBFED010895A1E21A2EAA1BBB1B6C
:102A2000FD010DC0AA1FBB1FEE1FFF1FA217B3079A
:102A3000E407F50720F0A21BB30BE40BF50B661FB0
:102A4000771F881F991F1A9469F760957095809574
:102A500090959B01AC01BD01CF010895A29FB001EB
:102A6000B39FC001A39F700D811D1124911DB29FC2
:102A7000700D811D1124911D0895991B79E004C0EA
:102A8000991F961708F0961B881F7A95C9F78095AD
:102A90000895EE0FFF1F0590F491E02D09940F9318
:102AA0001F93CF93DF938230910510F482E090E082
:102AB000E0914A05F0914B0530E020E0B0E0A0E065
:102AC000309799F42115310509F44AC0281B390BB8
:102AD00024303105D8F58A819B816115710589F112
:102AE000FB0193838283FE0111C0408151810281E9
:102AF000138148175907E0F04817590799F41097C0
:102B000061F012960C93129713961C933296CF0194
:102B1000DF91CF911F910F91089500934A05109373
:102B20004B05F4CF2115310551F04217530738F00A
:102B3000A901DB019A01BD01DF01F801C1CFEF015D
:102B4000F9CF90934B0580934A05CDCFFE01E20F5C
:102B5000F31F819391932250310939832883D7CF72
:102B60002091480530914905232B41F4209108011B
:102B700030910901309349052093480520910601C1
:102B8000309107012115310541F42DB73EB7409131
:102B90000A0150910B01241B350BE0914805F0917F
:102BA0004905E217F307A0F42E1B3F0B281739073E
:102BB00078F0AC014E5F5F4F2417350748F04E0F99
:102BC0005F1F5093490540934805819391939FCF90
:102BD000F0E0E0E09CCFCF93DF930097E9F0FC01B9
:102BE000329713821282A0914A05B0914B05ED01F4
:102BF00030E020E01097A1F420813181820F931FF3
:102C000020914805309149052817390709F061C01E
:102C1000F0934905E0934805DF91CF910895EA01CB
:102C2000CE17DF07E8F54A815B819E01411551050A
:102C3000B1F7E901FB83EA8349915991C40FD51F8C
:102C4000EC17FD0761F4808191810296840F951F36
:102C5000E90199838883828193819B838A83F0E051
:102C6000E0E012968D919C9113970097B9F52D9104
:102C70003C911197CD010296820F931F2091480538
:102C8000309149052817390739F6309751F51092D8
:102C90004B0510924A05B0934905A0934805BCCF57
:102CA000D383C28340815181840F951FC817D907F0
:102CB00061F44E5F5F4F88819981480F591F51839E
:102CC00040838A819B81938382832115310509F09A
:102CD000B0CFF0934B05E0934A059ECFFD01DC0198
:102CE000C0CF13821282D7CFB0E0A0E0EAE7F6E1CE
:102CF0000C94D7148C01009751F4CB010E944F150E
:102D00008C01C801CDB7DEB7E0E10C94F314FC01EF
:102D1000E60FF71F9C0122503109E217F30708F470
:102D20009DC0D901CD91DC911197C617D70798F0B6
:102D3000C530D10530F3CE0104978617970708F305
:102D4000C61BD70B2297C193D1936D937C93CF0170
:102D50000E94EB15D6CF5B01AC1ABD0A4C018C0E5C
:102D60009D1EA0914A05B0914B05512C412CF12C90
:102D7000E12C109731F5809148059091490588150F
:102D8000990509F05CC04616570608F058C08091B6
:102D9000060190910701009741F48DB79EB74091CD
:102DA0000A0150910B01841B950BE817F90708F0F5
:102DB00055C0F0934905E0934805F901718360839C
:102DC000A0CF8D919C91119712966C9012971396AB
:102DD0007C901397A815B90559F56C0142E0C40E13
:102DE000D11CCA14DB0420F1AC014A195B09DA01D9
:102DF0001296159780F06282738251834083D901C5
:102E00006D937C93E114F10471F0D7011396FC9358
:102E1000EE93129776CF22968C0F9D1FF901918326
:102E20008083F301EFCFF0934B05E0934A0569CF20
:102E30004816590608F42C017D01D3019ACFCB0125
:102E40000E944F157C01009749F0AE01B8010E9425
:102E50003117C8010E94EB15870153CF10E000E045
:102E600050CFFB01DC0102C001900D924150504057
:102E7000D8F708956817790768F4FB01DC01E40FBF
:102E8000F51FA40FB51F02C002900E924150504092
:102E9000D8F708950C943117FC018191861721F021
:102EA0008823D9F7992708953197CF010895FB0119
:102EB000DC018D91019080190110D9F3990B0895CF
:102EC000FB01DC0101900D920020E1F70895FB0168
:102ED000DC014150504030F08D910190801919F47F
:102EE0000020B9F7881B990B0895FB01DC014150C4
:102EF000504048F001900D920020C9F701C01D928A
:102F000041505040E0F70895FC0181E090E00190CD
:102F1000061609F4CF010020D1F701970895FB01AF
:102F200051915523A9F0BF01DC014D914517411185
:102F3000E1F759F4CD010190002049F04D91401581
:102F40004111C9F3FB014111EFCF81E090E00197FE
:102F5000089510E0CDE5D0E004C0FE010E944915BF
:0C2F60002196CE35D107C9F7F894FFCFB9
:102F6C00FFFF0100FFFF00004C0580004669657300
:102F7C00746100000000000000000001010101016B
:102F8C000152656C616A61646F0000000000000012
:102F9C000000000000004E6F636865000000000038
:102FAC000000000000000000000000546F646F205F
:102FBC004F4E000000000000000001010101010162
:102FCC00546F646F204F4646000000000000000064
:102FDC000000000000766163696F000000000000D3
:102FEC000000000000000000000000000000A20231
:102FFC00D001FD01EF0260020C0252020000000041
:10300C00B304860452055C047F046C045D04000068
:10301C0000003B05D0015205CF010D0A00202020F5
:10302C0020202020202020202020202020004D6F38
:10303C00646F3A2000563A00204C45443A002D2D3E
:10304C002D2D2D2D2D2D2D2D2D2D2D2D2D2D2D2DA4
:10305C002D2D0056656E74696C61646F723A200098
:10306C004C4544533A20004F4646004552524F526D
:10307C000046414C4C4F20454550524F4D00435556
:10308C0053544F4D0041504147415220544F444FEF
:10309C00003E3E2053697374656D6120536D6172FF
:1030AC0074486F6D652047543A20454550524F4D3A
:1030BC002079204D6F646F7320496E74656772615F
:1030CC00646F7320436F7272656374616D656E74A7
:1030DC00652E000D006D6F646F5F666965737461BA
:1030EC00006D6F646F5F72656C616A61646F006D17
:1030FC006F646F5F6E6F63686500656E63656E64A9
:10310C0065725F746F646F006170616761725F7488
:10311C006F646F006D6F646F5F637573746F6D5F59
:10312C0031006D6F646F5F637573746F6D5F320028
:10313C002F2F004F4B00636F6E665F696E690063E3
:10314C006F6E663A66696E00C3895849544F3A20CF
:10315C00436F6E66696775726163696F6E20677520
:10316C0061726461646120656E20454550524F4D1B
:10317C00006D6F646F5F637573746F6D3A004572A9
:10318C00726F723A204172636869766F2E6F726744
:10319C000056656E74696C61646F723A004C4544FC
:1031AC0027533A0073616C613A4F4E00636F6D6543
:1031BC00646F723A4F4E00636F63696E613A4F4EA3
:1031CC00006261C3B16F3A4F4E0062616E6F3A4F4D
:1031DC004E0068616269746163696F6E3A4F4E00AC
:0C31EC00414C5445524E414E444F0000EF
:00000001FF
