:020000040000FA
:100000000C945E000C9486000C9486000C94860080
:100010000C9486000C9486000C9486000C94860048
:100020000C9486000C9486000C9486000C94C00BF3
:100030000C9486000C9486000C9486000C94860028
:100040000C94FF090C9486000C946F0A0C94490AD6
:100050000C9486000C9486000C9486000C94860008
:100060000C94A10A0C9486000000000024002700D4
:100070002A0000000000250028002B0004040404CE
:100080000404040402020202020203030303030342
:10009000010204081020408001020408102001021F
:1000A00004081020000000080002010000030407FB
:1000B00000000000000000007C0C781511241FBE19
:1000C000CFEFD8E0DEBFCDBF13E0A0E0B1E0E2E6C5
:1000D000F1E302C005900D92A638B107D9F725E0EB
:1000E000A6E8B3E001C01D92A634B207E1F710E024
:1000F000CDE5D0E004C02197FE010E944416CC3526
:10010000D107C9F70E94060D0C94A4180C940000A6
:100110008F929F92AF92BF92FF920F931F93CF93B4
:10012000DF93F09030052BE02F1508F44CC02091A0
:10013000320508E512E0021B110927FD1395000F97
:10014000111F000F111F20913105C8E8D0E0C21B1C
:10015000D10927FDD395CC0FDD1FCC0FDD1F4E013C
:100160000D2E000CAA08BB089801012E000C440BB0
:10017000550B281939094A095B09DC010E94C81589
:1001800024EB30E040E050E00E949E15820E931E6A
:10019000A41EB51E8C169D062CF0E8018016910653
:1001A0000CF4E4012297CC0FDD1F2FB7F8948F2DAC
:1001B00090E0FC01EE0FFF1FE80FF91FEB5FFA4F15
:1001C000D283C1832FBFDF91CF911F910F91FF90F9
:1001D000BF90AF909F908F90089590E0FC01EC55F8
:1001E000FF4F2491FC01E057FF4F3491FC01E4588C
:1001F000FF4FE491EE23C9F0222339F0233001F1BF
:10020000A8F4213019F1223029F1F0E0EE0FFF1FA0
:10021000EE58FF4FA591B4918FB7F894EC9161110E
:1002200026C030953E233C938FBF08952730A9F018
:100230002830C9F0243049F7809180008F7D03C0B9
:10024000809180008F7780938000DFCF84B58F7797
:1002500084BDDBCF84B58F7DFBCF8091B0008F77DD
:100260008093B000D2CF8091B0008F7DF9CF3E2B2C
:10027000DACFCF93DF9390E0FC01E057FF4F24915A
:1002800084589F4FFC0184918823D1F090E0880F1F
:10029000991FFC01E859FF4FA591B491FC01EE585C
:1002A000FF4FC591D491623071F49FB7F8943C919F
:1002B000822F809583238C93E8812E2B28839FBFE8
:1002C000DF91CF9108958FB7F894EC912E2B2C935A
:1002D0008FBFF6CF3FB7F89480910804909109043E
:1002E000A0910A04B0910B0426B5A89B05C02F3F2E
:1002F00019F00196A11DB11D3FBFBA2FA92F982F4C
:100300008827BC01CD01620F711D811D911D42E046
:10031000660F771F881F991F4A95D1F708958F920E
:100320009F92AF92BF92CF92DF92EF92FF924B01DA
:100330005C010E946A016B017C010E946A016C19D8
:100340007D098E099F09683E734081059105A8F3D8
:1003500021E0821A9108A108B10888EEC80E83E056
:10036000D81EE11CF11C81149104A104B10429F7E9
:10037000FF90EF90DF90CF90BF90AF909F908F90C5
:1003800008952FB7F894609104047091050480914A
:100390000604909107042FBF0895089508950895C5
:1003A000AF92BF92CF92DF92EF92FF920F931F9383
:1003B000CF93DF936C017B018B01040F151FEB01C1
:1003C0005E01AE18BF08C017D10759F06991D60178
:1003D000ED91FC910190F081E02DC6010995892BEA
:1003E00079F7C501DF91CF911F910F91FF90EF90A9
:1003F000DF90CF90BF90AF900895FC01538D448D56
:10040000252F30E0842F90E0821B930B541710F0BF
:10041000CF96089501970895FC01918D828D9817CC
:1004200061F0A28DAE0FBF2FB11D5D968C91928DA4
:100430009F5F9F73928F90E008958FEF9FEF0895D5
:100440000F931F930E94C10160936404709365042D
:1004500080936604909367048CE594E00E940C02FC
:1004600097FF1DC00E94C1010091640410916504B2
:100470002091660430916704601B710B820B930B13
:100480000091600410916104209162043091630432
:100490006017710782079307F8F28FEF9FEF1F91A4
:1004A0000F910895FC01918D828D981731F0828D06
:1004B000E80FF11D858D90E008958FEF9FEF08956F
:1004C000FC01918D228D892F90E0805C9F4F821BD3
:1004D00091098F73992708958CE594E00E9460023A
:1004E00021E0892B09F420E0822F089580E090E03C
:1004F000892B29F00E946C0281110C940000089550
:10050000FC01A48DA80FB92FB11DA35ABF4F2C9188
:10051000848D90E001968F739927848FA689B7897F
:100520002C93A089B1898C91837080648C93938D76
:10053000848D981306C00288F389E02D80818F7D19
:1005400080830895EF92FF920F931F93CF93DF93D1
:10055000EC0181E0888F9B8D8C8D98131AC0E889FF
:10056000F989808185FF15C09FB7F894EE89FF89CE
:100570006083E889F98980818370806480839FBF6C
:1005800081E090E0DF91CF911F910F91FF90EF906C
:100590000895F62E0B8D10E00F5F1F4F0F7311277C
:1005A000E02E8C8D8E110CC00FB607FCFACFE889B7
:1005B000F989808185FFF5CFCE010E948002F1CFBD
:1005C000EB8DEC0FFD2FF11DE35AFF4FF0829FB72B
:1005D000F8940B8FEA89FB8980818062CFCFCF931B
:1005E000DF93EC01888D8823B9F0AA89BB89E8895B
:1005F000F9898C9185FD03C0808186FD0DC00FB601
:1006000007FCF7CF8C9185FFF2CF808185FFEDCF7E
:10061000CE010E948002E9CFDF91CF910895209111
:10062000C803260F3327331F21323105ECF4209104
:100630003204FC0190E080E0243069F082E008950B
:10064000A091C8032191AC0148555C4FA40FB52F70
:10065000B11D2C930196861798F38091C803680FFB
:100660006093C80380E0089581E0089510923204F9
:1006700081E08093310410920C0461E082E10E94D9
:10068000ED0061E083E10E94ED00E9EBF0E08081A4
:100690008E7F808380818D7F808388E48093B80003
:1006A00085E48093BC000895CF93DF9391E090930D
:1006B000A7038823B9F0C091B800D091BA00809107
:1006C000BC008A7B8093BC0060E082E10E94ED0068
:1006D00060E083E10E94ED000E943603D093BA00EF
:1006E000C093B800DF91CF910895CF92DF92EF923F
:1006F000FF920F931F93CF93DF93D0915B0481E020
:10070000D13208F09CC0C0915A040E946A016B016A
:100710007C018091320481116CC082E080933204AC
:1007200081E0809331048FEF8093300410922F0486
:10073000D0932E04AAE3B4E0EEE0F4E080E0D81316
:100740008DC010920D0480910D04CC0FC82BC09366
:100750000D0480910C04813009F084C010920C04C7
:100760000E946A016B017C0180910D048093BB00A3
:100770008091340490913504A0913604B0913704EF
:10078000892B8A2B8B2BA1F00E946A0100913404E3
:100790001091350420913604309137046C197D098D
:1007A0008E099F09061717072807390708F442C062
:1007B0008091BC0083FDD8CF85EC8093BC000E9463
:1007C0006A016B017C0180913204823009F44CC0D3
:1007D000809130048F3F09F469C0809130048032E9
:1007E00009F466C080913004803309F463C084E06A
:1007F00026C08091340490913504A0913604B091C4
:100800003704892B8A2B8B2B09F483CF0E946A0132
:10081000009134041091350420913604309137044E
:100820006C197D098E099F090617170728073907D4
:1008300008F06FCF809133040E94540385E010923A
:10084000390410925B0410923804DF91CF911F910C
:100850000F91FF90EF90DF90CF9008959D9191932D
:100860008F5F6DCF85EEA9CF8091340490913504D0
:10087000A0913604B0913704892B8A2B8B2B09F475
:10088000A2CF0E946A010091340410913504209196
:100890003604309137046C197D098E099F090617BB
:1008A00017072807390708F08ECFC4CF80E0C7CFDD
:1008B00082E0C5CF83E0C3CF0895E091F00380913B
:1008C000EF03E81730F4F0E0E957FC4F808190E047
:1008D00008958FEF9FEF08959091F0038091EF03BB
:1008E0002FEF3FEF981748F4E92FF0E0E957FC4F5E
:1008F000208130E09F5F9093F003C90108958091BB
:10090000EF039091F003891B990B0895CF92DF922A
:10091000EF92FF920F931F93CF93DF937C01CB0154
:100920008A0120913804222389F0EB016B01C40E67
:10093000D51ECC15DD0569F06991D701ED91FC91CB
:100940000190F081E02DC7010995F3CF642F0E943B
:100950000F03C801DF91CF911F910F91FF90EF908E
:10096000DF90CF900895CF93DF931F92CDB7DEB77E
:100970006983209138042223F9F020915B0420320E
:1009800058F021E030E0FC013383228390E080E0E6
:100990000F90DF91CF91089580913904E82FF0E016
:1009A000E65CFB4F998190838F5F8093390480933D
:1009B0005B0481E090E0ECCF61E0CE0101960E9403
:1009C0000F03F7CFCF93DF93EB01FC01828591E01A
:1009D0009093380480935A041092390410925B0467
:1009E000688189EF94E00E94B30465E070E080E0E4
:1009F00090E00E948F01698189EF94E00E94B30426
:100A000065E070E080E090E00E948F01DF91CF917F
:100A10000C947503CF93DF9300D01F92CDB7DEB750
:100A20001B8290E899838A83BE016F5F7F4F83E3C7
:100A300095E00E94E2040F900F900F90DF91CF910C
:100A40000895CF93C62F90913E0521E0209338045E
:100A500090935A041092390410925B04682F89EF26
:100A600094E00E94B3046C2F89EF94E00E94B304D9
:100A7000CF910C947503CF93DF9300D01F92CDB725
:100A8000DEB71B8220E429836A83BE016F5F7F4F3C
:100A90000E94E20481E090E00F900F900F90DF91B0
:100AA000CF91089590E080E00895892B79F4109219
:100AB000800082E080938100109285001092840073
:100AC000B19A80916F00826080936F00089560E01A
:100AD0008EE00E94ED0061E080E10C94ED0061E0A9
:100AE0008EE00E94ED0060E080E10C94ED00CF9379
:100AF000DF930E946F05C3E0D0E061E08FE00E94C9
:100B0000ED0066E970E080E090E00E948F0160E017
:100B10008FE00E94ED0066E970E080E090E00E94C6
:100B20008F01219751F7DF91CF910895CF93DF93F4
:100B3000DC0114962D913C911597232B79F0FB0144
:100B4000CD91DC9160817181CE010E948A1800975D
:100B500029F08C1B9D0BDF91CF9108958FEF9FEFB4
:100B6000FACF0F931F93CF93DF93EC018881998184
:100B7000009759F02A813B812617370730F081E032
:100B8000DF91CF911F910F9108958B016F5F7F4F80
:100B90000E946F17009759F0998388831B830A83FB
:100BA0002C813D81232B59F7FC011082E8CF80E096
:100BB000E7CFEF92FF920F931F93CF93DF936115CF
:100BC000710541F480E0DF91CF911F910F91FF906B
:100BD000EF90089541155105B1F07B01EC010C81B6
:100BE0001D81040F151FB8010E94B105882351F320
:100BF000288139818C819D81B701820F931F0E94CA
:100C00005B181D830C8381E0DECFFB010190002087
:100C1000E9F73197AF01461B570BDC01ED91FC91D1
:100C20000280F381E02D0994CF93DF93FC0144818E
:100C30005581608171818CE594E00E94D001EC01C6
:100C400068EB71E08CE594E00E9405068C0F9D1F17
:100C5000DF91CF910895CF93DF93BC018CE594E0B1
:100C60000E940506EC0168EB71E08CE594E00E94BF
:100C700005068C0F9D1FDF91CF910895AF92BF9213
:100C8000CF92DF92EF92FF920F931F93CF93DF9358
:100C9000DC01CD90DC901197C114D10439F0149689
:100CA000CD91DC918C017601209761F4DF91CF9199
:100CB0001F910F91FF90EF90DF90CF90BF90AF907A
:100CC000089575015701BFEFAB1ABB0AF701808188
:100CD000082E000C990B0E947C15892B91F7219707
:100CE000CC0DDD1D8881082E000C990B0E947C150F
:100CF000892B29F0CE15DF0510F02197F3CFAE0137
:100D00004F5F5F4F4E195F09D80115965C934E9364
:100D10001497CE14DF0420F4B701C6010E942C18EA
:100D2000D801ED91FC91119714968D919C91E80F4B
:100D3000F91F1082BBCFFB0144815581FC01248146
:100D400035812417350778F080819181009759F01B
:100D5000FB01608171816115710529F00E946218A3
:100D600021E0892B09F020E0822F0895FC012481E5
:100D70003581232B39F421E0FB018081882349F060
:100D800020E007C0808191810E94521821E0892BC8
:100D9000B9F7822F08950F931F93CF93DF938C01A0
:100DA000EB01FC01808191810097E1F068817981FC
:100DB00061157105A9F0428153812C813D81421753
:100DC000530770F00E945B188C819D81F801958318
:100DD00084831D821C82DF91CF911F910F91089512
:100DE0000E94E61688819981F801918380838A8127
:100DF0009B81938382838C819D81958384831982D7
:100E000018821B821A82E5CFCF93DF93EC01888191
:100E10009981009711F00E94E616198218821D82AE
:100E20001C821B821A82DF91CF910895CF93DF93AA
:100E3000EC01FB0144815581608171810E94D905DB
:100E4000811103C0CE010E940407CE01DF91CF9132
:100E50000895EF92FF920F931F93CF93DF93EC01CE
:100E60007B018A01BA010E94B10581110BC0CE013C
:100E70000E940407CE01DF91CF911F910F91FF9047
:100E8000EF9008951D830C83B701888199810E949A
:100E90005B18F0CFFB0101900020E9F73197AF011B
:100EA000461B570B0C942907FC01118210821382F8
:100EB000128215821482FB0101900020E9F731971C
:100EC000AF01461B570B0C942907AF92BF92CF92EC
:100ED000DF92EF92FF920F931F93CF93DF936C01FA
:100EE0005B017A0189012417350720F48F2D7901E0
:100EF000042F182F6AEB71E0C6010E945407D50138
:100F00001496CD91DC91EC16FD06E0F40C171D074C
:100F100008F4E801D501ED91FC911197EC0FFD1F4C
:100F2000108110826D917C916E0D7F1DC60161153F
:100F30007105A1F00E944A07F50180819181C80FD7
:100F4000D91F1883C601DF91CF911F910F91FF9098
:100F5000EF90DF90CF90BF90AF9008950E9404076C
:100F6000EBCFFC0180819181009711F00C94E61683
:100F70000895AF92BF92CF92DF92EF92FF920F93BC
:100F80001F93CF93DF9300D000D000D0CDB7DEB752
:100F90005C016B017A011B8210E819831A83BE0180
:100FA0006F5F7F4F83E395E00E94E2046BEB71E09B
:100FB00083E395E00E9405061B82198300EC0A83F7
:100FC000BE016F5F7F4F83E395E00E94E2046BEB0D
:100FD00071E083E395E00E9405061B8219831A8362
:100FE000BE016F5F7F4F83E395E00E94E2046CECEB
:100FF00071E0CE0101960E945407B501CE01019621
:101000000E941607FC01448155816081718183E350
:1010100095E00E94D001CE0101960E94B1071B828B
:1010200019830A83BE016F5F7F4F83E395E00E94BF
:10103000E20463ED71E0CE0101960E945407B6010F
:10104000CE0101960E9416078C0145E050E066ED46
:1010500071E00E94D905811103C0C8010E940407F4
:10106000B701C8010E941607FC01448155816081C7
:10107000718183E395E00E94D001CE0101960E9428
:10108000B1078CED91E00E942B066CEC71E0CE0173
:1010900001960E945407B501CE0101960E941607E1
:1010A0000E941406CE0101960E94B10761EF71E023
:1010B000CE0101960E945407B601CE0101960E940E
:1010C00016070E941406CE0101960E94B1076EEF2A
:1010D00071E0CE0101960E945407B701CE0101963E
:1010E0000E9416070E941406CE0101960E94B107C5
:1010F00026960FB6F894DEBF0FBECDBFDF91CF911D
:101100001F910F91FF90EF90DF90CF90BF90AF9025
:10111000089585ED8093BC0080913404909135044E
:10112000A0913604B09137040796A11DB11D23E0AC
:10113000B695A795979587952A95D1F72091BC00EC
:1011400024FD03C01092320408954091340450915C
:1011500035046091360470913704452B462B472B9C
:1011600069F30097A105B10541F02AE22A95F1F74C
:1011700000C00197A109B109E1CF809133040C941B
:101180005403CF92DF92EF92FF920F931F93CF936E
:10119000DF93EB017B0125E1E20EF11C8B016C0179
:1011A000C61AD70AC601800F911F0E948815F80140
:1011B00081938F01EE15FF05A9F7CE01DF91CF9145
:1011C0001F910F91FF90EF90DF90CF900895EF92D5
:1011D000FF920F931F93CF93DF93CDB7DEB7AD97F9
:1011E0000FB6F894DEBF0FBECDBF8C01BE016F5F9E
:1011F0007F4F0E94C10889818F5F823030F469E09F
:1012000072E0CE0101960E945B1869E072E0CE01A7
:1012100001960E945218E0900001F0900101892B84
:10122000E1F50E151F0561F16FE072E0CE018296C7
:101230000E94540765E072E0CE014C960E9454076C
:1012400069E072E0CE0146960E945407AE014E5D01
:101250005F4FBE01645E7F4FCE0146960E94B90784
:10126000CE0146960E94B107CE014C960E94B1076E
:10127000CE0182960E94B1071093010100930001F4
:10128000AD960FB6F894DEBF0FBECDBFDF91CF9104
:101290001F910F91FF90EF900895698982E00E945D
:1012A000ED006A8984E00E94ED006B8983E00E9472
:1012B000ED006C8985E00E94ED006D8986E00E945A
:1012C000ED00688989E00E94ED000E151F05C1F24E
:1012D0006AEB71E0CE0146960E94540729898A89FB
:1012E000422F480F5527551F2B89240F352F311DAD
:1012F0008C89280F311D8D89820F932F911D65E0F8
:1013000072E0009731F064E473E0059711F06CE14E
:1013100072E0CE0146960E944A0719A618A61BA69F
:101320001AA61DA61CA66E897F896115710531F06C
:101330004A8D5B8DCE0188960E942907888964E4D6
:1013400073E0813011F065E072E0CE0182960E9478
:101350005407BE016F5F7F4FCE014C960E94540729
:10136000AE01485D5F4FBE016E5D7F4FCE014C9672
:101370000E94B907CE014C960E94B107CE01829619
:101380000E94B107CE0188960E94B1071093010117
:1013900000930001CE0146960E94B10771CF9F9243
:1013A000AF92BF92CF92DF92EF92FF920F931F9373
:1013B000CF93DF935C017B018B01D0E0C0E0F801AB
:1013C00091908F016501CC0EDD1EC6010E9488152B
:1013D000981621F0692DC6010E9490152196C531FD
:1013E000D10569F7C701DF91CF911F910F91FF9050
:1013F000EF90DF90CF90BF90AF909F9008951F9295
:101400000F920FB60F9211242F933F938F939F93B8
:10141000AF93BF938091040490910504A0910604BA
:10142000B09107043091030423E0230F2D3758F5C2
:101430000196A11DB11D2093030480930404909391
:101440000504A0930604B0930704809108049091CA
:101450000904A0910A04B0910B040196A11DB11DCD
:101460008093080490930904A0930A04B0930B049A
:10147000BF91AF919F918F913F912F910F900FBE90
:101480000F901F90189526E8230F0296A11DB11DFD
:10149000D2CF1F920F920FB60F9211242F933F932A
:1014A0004F935F936F937F938F939F93AF93BF936C
:1014B000EF93FF938CE594E00E948002FF91EF91FF
:1014C000BF91AF919F918F917F916F915F914F915C
:1014D0003F912F910F900FBE0F901F9018951F9264
:1014E0000F920FB60F9211242F938F939F93EF9328
:1014F000FF93E0916C04F0916D048081E09172049F
:10150000F091730482FD1BC09081809175048F5F00
:101510008F7320917604821741F0E0917504F0E01A
:10152000E45AFB4F958F80937504FF91EF919F9143
:101530008F912F910F900FBE0F901F901895808163
:10154000F4CF1F920F920FB60F9211242F933F9357
:101550004F935F936F937F938F939F93AF93BF93BB
:10156000EF93FF938091B900887F803609F44AC0D9
:10157000F0F5883209F4A7C018F5803109F49BC052
:10158000B8F4882309F4F9C0883009F494C0FF91B5
:10159000EF91BF91AF919F918F917F916F915F91EB
:1015A0004F913F912F910F900FBE0F901F90189564
:1015B000883109F488C0803251F78093300414C018
:1015C000803409F49DC040F48033B9F38833F9F6D0
:1015D0008093300485ECB0C0803509F485C088352F
:1015E00009F496C0883499F60E948908D0CF8839CA
:1015F00009F48CC038F5883729F050F4883611F09A
:10160000803729F683E0809332041092EA0357C0B2
:10161000883809F47BC0803919F0803809F0B7CFD9
:101620008091EA03803208F071C0E091EA0381E022
:101630008E0F8093EA038091BB00F0E0E653FC4FED
:1016400080833DC0803B39F0E0F4803A09F479C0F2
:10165000883A09F09CCF84E0809332041092C90349
:101660001092C803E091ED03F091EE03099580918B
:10167000C80381110FC081E08093C8031092A803B2
:1016800009C0803C09F4A6CF883C09F4A3CF883B6D
:1016900009F07DCFE091C90381E08E0F8093C903EB
:1016A000F0E0E855FC4F80818093BB009091C90326
:1016B0008091C80329C080910D048093BB0085EC04
:1016C0008093BC0064CF90912F0480912E049817D2
:1016D00058F5E0912F0481E08E0F80932F04F0E005
:1016E000E25FFB4F8081E9CFE0912F0481E08E0F14
:1016F00080932F048091BB00F0E0E25FFB4F80837A
:1017000090912F0480912E049817C8F285E8D8CFC5
:10171000E0912F0481E08E0F80932F048091BB0015
:10172000F0E0E25FFB4F80838091310481115CCF58
:1017300081E080930C0484EA8093BC001092320410
:1017400026CF85EC8093BC00109232048091EA038E
:10175000803230F4E091EA03F0E0E653FC4F10826F
:101760006091EA0370E0E091EB03F091EC038AEC06
:1017700093E009951092EA030ACF1092300434CF17
:101780001F920F920FB60F9211242F933F934F93F6
:101790005F936F937F938F939F93AF93BF93CF93F9
:1017A000DF93EF93FF9380918603C0912905D0E0EA
:1017B00087FF24C0109285001092840080918603D8
:1017C0008F5F8093860380918603082E000C990B0F
:1017D0008C179D0724F4809186038C30C4F180918E
:1017E000840090918500049680349C4908F47AC066
:1017F0008091840090918500049676C08091860344
:10180000082E000C990B8C179D07C4F6E0918603F7
:101810008E2FEE0F990BFC01EE0FFF1FE80FF91F43
:10182000EB5FFA4F808186FFC9CFE09186038E2F50
:10183000EE0F990BFC01EE0FFF1FE80FF91FEB5F96
:10184000FA4F808160E08F730E94ED00B7CF209146
:10185000840030918500E09186038E2FEE0F990B66
:10186000FC01EE0FFF1FE80FF91FEB5FFA4F8181BC
:101870009281820F931F9093890080938800E0915A
:1018800086038E2FEE0F990BFC01EE0FFF1FE80F62
:10189000F91FEB5FFA4F808186FF11C0E09186034C
:1018A0008E2FEE0F990BFC01EE0FFF1FE80FF91FB3
:1018B000EB5FFA4F808161E08F730E94ED00FF9132
:1018C000EF91DF91CF91BF91AF919F918F917F91D8
:1018D0006F915F914F913F912F910F900FBE0F909D
:1018E0001F90189580E49CE990938900809388006C
:1018F0008FEF80938603E3CF10925F0410925E0413
:1019000088EE93E0A0E0B0E08093600490936104DF
:10191000A0936204B09363042CE831E030935D043B
:1019200020935C0425EC30E0309369042093680434
:1019300024EC30E030936B0420936A0420EC30E018
:1019400030936D0420936C0421EC30E030936F04ED
:1019500020936E0422EC30E03093710420937004E5
:1019600026EC30E0309373042093720410927504D7
:101970001092760410927704109278041092FC046E
:101980001092FB048093FD049093FE04A093FF0447
:10199000B09300058EE991E09093FA048093F904E6
:1019A000109236051092350580EB91E09093340546
:1019B000809333058EE380933D0580E680933E055A
:1019C00080E180933F0582E0809340058091290566
:1019D0008C30C0F491E0980F9093290580933005E6
:1019E00090E0FC01EE0FFF1FE80FF91FEB5FFA4FCD
:1019F00088EB9BE0928381836AEB71E08AE295E059
:101A00000C9454078FEF80933005F6CFCF93DF937C
:101A1000CDB7DEB7C759D1090FB6F894DEBF0FBEF8
:101A2000CDBF789484B5826084BD84B5816084BD67
:101A300085B5826085BD85B5816085BD80916E006C
:101A4000816080936E00109281008091810082609D
:101A500080938100809181008160809381008091DA
:101A600080008160809380008091B10084608093C9
:101A7000B1008091B00081608093B00080917A00C5
:101A8000846080937A0080917A00826080937A00EB
:101A900080917A00816080937A0080917A008068DA
:101AA00080937A001092C100809130058C3008F04C
:101AB00045C061E088E00E94390180913005282FFF
:101AC00030E0F901EE0FFF1FE20FF31FEB5FFA4F5B
:101AD0009081907C986090839EE89093310594E685
:101AE000909332052CE0622F0E94381690E0829F7E
:101AF000B001112430E020E0AB01420F531FFA0186
:101B0000EE0FFF1FE40FF51FEB5FFA4F408146FD1C
:101B100007C02F5F3F4F2C30310571F70E945505EC
:101B2000E09130058E2F90E0FC01EE0FFF1FE80FD3
:101B3000F91FEB5FFA4F80818064808361E08EE063
:101B40000E94390161E08FE00E94390161E080E18B
:101B50000E94390161E08EE00E94ED0060E08FE0BC
:101B60000E94ED0060E080E10E94ED00E0916C04D5
:101B7000F0916D0482E08083E0916804F091690443
:101B80001082E0916A04F0916B048FEC80831092D4
:101B90007404E0917004F091710486E08083E09118
:101BA0006E04F0916F04808180618083E0916E0407
:101BB000F0916F04808188608083E0916E04F091E1
:101BC0006F04808180688083E0916E04F0916F04DF
:101BD00080818F7D80831092F0031092EF0310922A
:101BE000390410925B040E9436038DEC91E09093CF
:101BF000EE038093ED038EEC91E09093EC038093E1
:101C0000EB031092370580914005823018F098E080
:101C10009093370580933B0510923C0562E370E09A
:101C200080E090E00E948F018091370580620E94E1
:101C30000A0565E070E080E090E00E948F018091ED
:101C4000370580620E940A0565E070E080E090E060
:101C50000E948F018091370580620E940A0584E00E
:101C6000809338058CE00E940A0581E00E940A05F5
:101C70008BE39FE10197F1F782E08093390586E0DD
:101C80000E940A0560E080E00E9421056FEF88E075
:101C90000E94210560E281E00E9421056FEF84E04F
:101CA0000E9421056FEF83E00E9421056FEF82E023
:101CB0000E9421056FEF84E00E94210560E083E02F
:101CC0000E94210560E082E00E94210565E072E04B
:101CD000CE0101960E94540765E072E0CE0146965F
:101CE0000E94540763E272E0CE018B960E94540773
:101CF000AE014F5F5F4FBE016A5E7F4FCE018B9694
:101D00000E94B907CE018B960E94B107CE0146967C
:101D10000E94B107CE0101960E94B10761E082E006
:101D20000E94390161E084E00E94390161E083E0B2
:101D30000E94390161E085E00E94390161E086E09E
:101D40000E94390161E089E00E94390162E087E088
:101D50000E943901809130058C3008F043C061E069
:101D600088E00E94390180913005282F30E0F90188
:101D7000EE0FFF1FE20FF31FEB5FFA4F9081907C95
:101D80009860908310923105109232052CE0622FFA
:101D90000E94381690E0829FB001112430E020E0CC
:101DA000AB01420F531FFA01EE0FFF1FE40FF51FA7
:101DB000EB5FFA4F408146FD07C02F5F3F4F2C304D
:101DC000310571F70E945505E09130058E2F90E0A6
:101DD000FC01EE0FFF1FE80FF91FEB5FFA4F808148
:101DE0008064808360E082E00E94ED0060E084E037
:101DF0000E94ED0060E083E00E94ED0060E085E07D
:101E00000E94ED0060E086E00E94ED0060E089E065
:101E10000E94ED001092F60385E1EAE0F1E0DE01B8
:101E2000A158BF4F01900D928A95E1F785E1EFE14E
:101E3000F1E0DE01A659BF4F01900D928A95E1F7BE
:101E400085E1E4E3F1E0DE01AB5ABF4F01900D9272
:101E50008A95E1F785E1E9E4F1E0DE01A05CBF4F9E
:101E600001900D928A95E1F785E1EEE5F1E0DE0162
:101E70009B9601900D928A95E1F7BE0161587F4FC4
:101E800090E080E00E94CF09BE0166597F4F8EE14D
:101E900090E00E94CF09BE016B5A7F4F8CE390E027
:101EA0000E94CF09BE01605C7F4F8AE590E00E94EE
:101EB000CF09BE01655D7F4F88E790E00E94CF09A2
:101EC00085E1E3E7F1E0DE01119601900D928A953C
:101ED000E1F7BE016A5E7F4F86E990E00E94C1088B
:101EE0008E898F5F823038F4BE016F5F7F4F86E945
:101EF00090E00E94CF09BE016A5E7F4F84EB90E0C4
:101F00000E94C1088E898F5F823038F4BE016F5FF6
:101F10007F4F84EB90E00E94CF090E94C101609343
:101F2000FF037093000480930104909302048FE2F6
:101F300092E00E942B0634E0232E312C22E0422E28
:101F4000512C8CE594E00E946002181619060CF0E2
:101F5000FAC36AEB71E0CE018B960E9454070E948F
:101F6000200297FD0FC08A30910561F089831A82A3
:101F700041E050E0BE016F5F7F4FCE018B960E9423
:101F8000D905EDCF6AEB71E0CE0101960E945407AE
:101F900061E772E0CE0146960E945407AFA4B8A84C
:101FA000A114B10409F461C08A8C9B8C8114910442
:101FB00009F45BC0ED80FE80E818F9080BA51CA5AC
:101FC000E114F104A1F46E897F89C8010E948A1886
:101FD0008C01009709F449C069817A814D815E8145
:101FE0000E942C188D819E81080F191FECCFF7FCE1
:101FF0000FC06E887F886501C801B3010E948A18EE
:10200000009709F4BAC0880D991DCE0CDF1CF5CFDE
:1020100068016E897F89C8010E948A184C01009767
:1020200001F15C01A01AB10AA501B801C6010E9424
:102030002C18CA0CDB1C69817A814D815E81C60136
:102040000E942C188D819E81C80ED91E0A8D1B8D71
:10205000080D191D8FA598A98E0D9F1D98AB8FA7F0
:10206000D8CFB801C6010E945B18CE0146960E94E7
:10207000B107CE0101960E94B107CE018B960E9456
:102080003E0663E772E0CE018B960E94B606811190
:1020900001C16FE772E0CE018B960E94B6068111F6
:1020A000FDC06DE872E0CE018B960E94B6068111EC
:1020B000F5C068E972E0CE018B960E94B6068111E8
:1020C000EDC066EA72E0CE018B960E94B6068111E1
:1020D000E5C062EB72E0CE018B960E94B6068111DC
:1020E000DDC060EC72E0CE018B960E94B6068111D5
:1020F000D5C06EEC72E0CE0101960E945407BE017D
:102100006F5F7F4FCE018B960E9496058C01CE01AA
:1021100001960E94B1070F3F1007C9F0980150E0E7
:1021200040E0BE01655D7F4FCE0101960E946507CC
:10213000BE016F5F7F4FCE018B960E94CB06CE0112
:1021400001960E94B107CE018B960E943E068FA594
:1021500098A9892B69F08091F4039091F50381305F
:10216000910509F410C108F4F8C0029709F48EC172
:10217000CE018B960E94B107E4CEAC14BD0409F4E5
:1021800074CF8DA59EA58C159D0568F4B6016F5F73
:102190007F4FC8010E946F17009709F466CF9CA774
:1021A0008BA7DEA6CDA60FA518A90150110917FD12
:1021B0005CCF48016A8C7B8C6114710409F455CFA3
:1021C000AFA4B8A8A114B10409F44FCFA614B70462
:1021D00008F44BCF0A151B0520F0450121E0821AB7
:1021E0009108CBA4DCA44E895F89CC56DF4F59837C
:1021F0004883C459D040C6010FEF1FEFF601E80D28
:10220000F91DCA56DF4FF983E883C659D040CA5634
:10221000DF4F28813981C659D04028173907A0F0EF
:10222000CC56DF4F68817981C459D0400E948A180A
:10223000009751F09C012C193D098216930608F471
:10224000980101968901E3CF17FD0FCF600E711E33
:10225000C601860D971DA50146195709BC018E0DB3
:102260009F1D0E9435188FA598A98E0D9F1D98ABB4
:102270008FA72BA53CA5820F931FFC0110828BA575
:102280009CA569817A814D815E81800F911F0E949A
:102290002C188BCF1092FE031092FD036FE772E0B3
:1022A000CE018B960E94B606882331F081E090E043
:1022B0009093FE038093FD036DE872E0CE018B9650
:1022C0000E94B606882321F05092FE034092FD033F
:1022D00068E972E0CE018B960E94B606882339F039
:1022E00093E0892E912C9092FE038092FD0366EA82
:1022F00072E0CE018B960E94B606882321F03092C0
:10230000FE032092FD0362EB72E0CE018B960E94E9
:10231000B606882339F085E0A82EB12CB092FE03D2
:10232000A092FD0360EC72E0CE018B960E94B6068F
:10233000882331F026E030E03093FE032093FD0344
:102340000E94C1016093FF03709300048093010415
:10235000909302040E9477050BCF61ED72E0CE01ED
:102360008B960E94B606882309F460C081E090E055
:102370009093F5038093F4039093030180930201FB
:102380000E946F05F5CE6AED72E0CE018B960E9439
:10239000B606882349F01092F5031092F40383EEF9
:1023A00092E00E942B06D6CF6CE073E0CE0101963E
:1023B0000E945407BE016F5F7F4FCE018B960E9433
:1023C0009B06182FCE0101960E94B107112309F434
:1023D000CFCECFA4D8A8C114D10401F1EBA4FCA4A2
:1023E00062E270E0C7010E9447188C010E191F09B4
:1023F000892B11F40FEF1FEFF701EC0DFD1DB080DD
:102400001082EBA4FCA462E270E0C7010E947F1876
:10241000CE0CDF1CF601B082009759F489E193E0FD
:102420000E942B061092F5031092F4030E94670598
:102430009FCE2BA53CA5AC01421B530B9A010F3F2D
:10244000100761F32F3F320749F30217130734F7E0
:10245000A8014F5F5F4FBE01655D7F4FCE010196C2
:102460000E946507BE016F5F7F4F8AE295E00E9480
:10247000CB06CE0101960E94B1075092F50340921F
:10248000F4031092F3031092F20372CE6CE273E045
:10249000CE0101960E945407BE016F5F7F4FCE01AF
:1024A0008B960E949B06182FCE0101960E94B107C1
:1024B000112309F164E473E0CE0101960E945407F0
:1024C000BE016F5F7F4FCE018B960E94960521E083
:1024D000019609F420E02093F103CE0101960E94B9
:1024E000B1078091F2039091F30301969093F30367
:1024F0008093F2033DCE68E373E0CE0101960E9423
:102500005407BE016F5F7F4FCE018B960E949B06E2
:10251000182FCE0101960E94B107112309F428CE8D
:102520006FE373E0CE0101960E945407BE016F5F16
:102530007F4FCE018B960E9496054C01CE010196ED
:102540000E94B10767E473E0CE0101960E94540730
:10255000BE016F5F7F4FCE018B960E9496055C0196
:10256000CE0101960E94B10762E573E0CE010196AB
:102570000E945407BE016F5F7F4FCE018B960E9471
:1025800096056C01CE0101960E94B1076CE573E0DF
:10259000CE0101960E945407BE016F5F7F4FCE01AE
:1025A0008B960E949605772473940196B1F465E6A4
:1025B00073E0CE0146960E945407BE016A5E7F4FCB
:1025C000CE018B960E94960577247394019609F4A8
:1025D000712CCE0146960E94B107CE0101960E9451
:1025E000B1076DE673E0CE0101960E945407BE016B
:1025F0006F5F7F4FCE018B960E9496057C01CE01C6
:1026000001960E94B1078091F2039091F303019625
:102610009093F3038093F203029709F0A9CD009100
:102620002E0510912F050115110509F046C01E8ACF
:1026300080910201909103018130910509F053C00E
:102640001091F1034EE050E0BE016A5E7F4FCE0173
:1026500001960E9470181F86188B81E08920809453
:1026600009F480E0898B81E0AB20A09409F480E03C
:102670008A8B81E0CD20C09409F480E08B8B7C8A2A
:1026800081E0EF20E09409F480E08D8BBE016F5F64
:102690007F4F86E990E00E94CF09809102019091DE
:1026A00003010196909303018093020181E090E081
:1026B0009093F5038093F4035BCD0E30110510F079
:1026C0000EE010E060912A0570912B05A801CE0163
:1026D00046960E947018E6E1F0E0EC0FFD1FE00F57
:1026E000F11F1082A5CF029709F71091F1034EE078
:1026F00050E0BE016A5E7F4FCE0101960E947018C5
:102700001F86188B81E08920809409F480E0898BF2
:1027100081E0AB20A09409F480E08A8B81E0CD2099
:10272000C09409F480E08B8B7C8A81E0EF20E094F8
:1027300009F480E08D8BBE016F5F7F4F84EB90E0EA
:102740000E94CF09B3CF0E94C1016B017C0180912F
:10275000FF0390910004A0910104B091020446018E
:102760005701881A990AAA0ABB0AD501C401883BF5
:102770009B40A105B10560F08091F60391E08927A7
:102780008093F6038823B9F08AE590E00E948800E0
:10279000E091FD03F091FE03E730F10508F0A2C0DF
:1027A000EC52FC4E0C944416DE139114B714E01452
:1027B00007152C15511590E080E0E8CF61E089E025
:1027C0000E94ED008091FC0381112BC06BE773E048
:1027D000CE0101960E94540764E473E0CE01469650
:1027E0000E94540768E772E0CE018B960E9454075E
:1027F000AE014F5F5F4FBE016A5E7F4FCE018B9689
:102800000E94B907CE018B960E94B107CE01469671
:102810000E94B107CE0101960E94B10781E080932A
:10282000FC030E94C1010091F8031091F90320916B
:10283000FA033091FB034B015C01801A910AA20A52
:10284000B30A95018401043611052105310528F1EB
:102850006093F8037093F9038093FA039093FB035A
:102860008091F70391E089278093F703882309F487
:1028700046C061E082E00E94ED0061E083E00E94DA
:10288000ED0061E086E00E94ED0060E084E00E94DF
:10289000ED0060E085E00E94ED008091FF039091E3
:1028A0000004A0910104B0910204A7019601281B25
:1028B000390B4A0B5B0BDA01C901883B9B40A10530
:1028C000B10580F0C092FF03D0920004E0920104B1
:1028D000F09202041092FC0381E090E09093FE03DA
:1028E0008093FD0380E090E0892B09F42ACB0E94BD
:1028F0006C02882309F422CB0E9400001FCB60E009
:1029000082E00E94ED0060E083E00E94ED0060E064
:1029100086E00E94ED0061E084E00E94ED0061E04D
:10292000B9CF8EE190E00E94E7088091FF0390917B
:102930000004A0910104B091020446015701881AD5
:10294000990AAA0ABB0AD501C401883B9B40A1058C
:10295000B10540F2C092FF03D0920004E09201045E
:10296000F09202045092FE034092FD03BBCF8CE331
:1029700090E00E94E7088091FF0390910004A091ED
:102980000104B091020446015701881A990AAA0A63
:10299000BB0AD501C401883B9B40A105B10508F4E1
:1029A000A1CFC092FF03D0920004E0920104F09204
:1029B000020443E050E05093FE034093FD0392CFA6
:1029C0008AE590E00E94E7088091FF03909100045F
:1029D000A0910104B091020446015701881A990A96
:1029E000AA0ABB0AD501C401883B9B40A105B105D9
:1029F00008F478CFC092FF03D0920004E092010463
:102A0000F09202043092FE032092FD036BCF88E720
:102A100090E00E94E7088091FF0390910004A0914C
:102A20000104B091020446015701881A990AAA0AC2
:102A3000BB0AD501C401883B9B40A105B10508F440
:102A400051CFC092FF03D0920004E0920104F092B3
:102A5000020445E050E0AFCF86E990E00E94E7082D
:102A60008091FF0390910004A0910104B0910204B1
:102A700046015701881A990AAA0ABB0AD501C4015E
:102A8000883B9B40A105B10508F42CCFC092FF0301
:102A9000D0920004E0920104F092020446E050E07B
:102AA0008ACF84EB90E00E94E7088091FF03909129
:102AB0000004A0910104B091020446015701881A54
:102AC000990AAA0ABB0AD501C401883B9B40A1050B
:102AD000B10508F407CFC092FF03D0920004E09242
:102AE0000104F09202041092FE031092FD03FACE4C
:102AF0008AE295E00C94B10791110C94851580320F
:102B000019F089508550C8F70895992788270895A6
:102B1000F999FECF92BD81BDF89A992780B50895A5
:102B2000262FF999FECF1FBA92BD81BD20BD0FB6E9
:102B3000F894FA9AF99A0FBE01960895052E97FB1C
:102B40001EF400940E94B51557FD07D00E94071689
:102B500007FC03D04EF40C94B51550954095309574
:102B600021953F4F4F4F5F4F0895909580957095F9
:102B700061957F4F8F4F9F4F08950E942916A59F03
:102B8000900DB49F900DA49F800D911D1124089568
:102B9000B7FF0C94BD150E94BD15821B930B0895C1
:102BA0002F923F924F925F926F927F928F929F925D
:102BB000AF92BF92CF92DF92EF92FF920F931F934B
:102BC000CF93DF93CDB7DEB7CA1BDB0B0FB6F894FC
:102BD000DEBF0FBECDBF09942A88398848885F843C
:102BE0006E847D848C849B84AA84B984C884DF80AD
:102BF000EE80FD800C811B81AA81B981CE0FD11D91
:102C00000FB6F894DEBF0FBECDBFED010895A1E26F
:102C10001A2EAA1BBB1BFD010DC0AA1FBB1FEE1F56
:102C2000FF1FA217B307E407F50720F0A21BB30BA1
:102C3000E40BF50B661F771F881F991F1A9469F71D
:102C400060957095809590959B01AC01BD01CF0179
:102C50000895A29FB001B39FC001A39F700D811D75
:102C60001124911DB29F700D811D1124911D089595
:102C7000991B79E004C0991F961708F0961B881FCE
:102C80007A95C9F780950895EE0FFF1F0590F4918E
:102C9000E02D09940F931F93CF93DF93823091051A
:102CA00010F482E090E0E0914405F091450530E0B9
:102CB00020E0B0E0A0E0309799F42115310509F447
:102CC0004AC0281B390B24303105D8F58A819B81F5
:102CD0006115710589F1FB0193838283FE0111C0A7
:102CE000408151810281138148175907E0F048174C
:102CF000590799F4109761F012960C931297139656
:102D00001C933296CF01DF91CF911F910F910895BF
:102D10000093440510934505F4CF2115310551F07A
:102D20004217530738F0A901DB019A01BD01DF0109
:102D3000F801C1CFEF01F9CF909345058093440589
:102D4000CDCFFE01E20FF31F819391932250310901
:102D500039832883D7CF2091420530914305232B17
:102D600041F42091060130910701309343052093EF
:102D7000420520910401309105012115310541F4EE
:102D80002DB73EB74091080150910901241B350B26
:102D9000E0914205F0914305E217F307A0F42E1BE2
:102DA0003F0B2817390778F0AC014E5F5F4F2417AF
:102DB000350748F04E0F5F1F50934305409342057F
:102DC000819391939FCFF0E0E0E09CCFCF93DF938E
:102DD0000097E9F0FC01329713821282A09144051A
:102DE000B0914505ED0130E020E01097A1F420817D
:102DF0003181820F931F209142053091430528179E
:102E0000390709F061C0F0934305E0934205DF9173
:102E1000CF910895EA01CE17DF07E8F54A815B817B
:102E20009E0141155105B1F7E901FB83EA83499100
:102E30005991C40FD51FEC17FD0761F48081918172
:102E40000296840F951FE90199838883828193817B
:102E50009B838A83F0E0E0E012968D919C9113971A
:102E60000097B9F52D913C911197CD010296820FF3
:102E7000931F20914205309143052817390739F6F1
:102E8000309751F51092450510924405B0934305D3
:102E9000A0934205BCCFD383C28340815181840F6C
:102EA000951FC817D90761F44E5F5F4F88819981DC
:102EB000480F591F518340838A819B81938382836A
:102EC0002115310509F0B0CFF0934505E093440595
:102ED0009ECFFD01DC01C0CF13821282D7CFB0E0BC
:102EE000A0E0E5E7F7E10C94D2158C01009751F4CE
:102EF000CB010E944A168C01C801CDB7DEB7E0E1D4
:102F00000C94EE15FC01E60FF71F9C0122503109CD
:102F1000E217F30708F49DC0D901CD91DC91119718
:102F2000C617D70798F0C530D10530F3CE01049706
:102F30008617970708F3C61BD70B2297C193D19327
:102F40006D937C93CF010E94E616D6CF5B01AC1A3D
:102F5000BD0A4C018C0E9D1EA0914405B091450503
:102F6000512C412CF12CE12C109731F58091420528
:102F7000909143058815990509F05CC046165706DF
:102F800008F058C08091040190910501009741F428
:102F90008DB79EB74091080150910901841B950B94
:102FA000E817F90708F055C0F0934305E093420590
:102FB000F90171836083A0CF8D919C911197129636
:102FC0006C90129713967C901397A815B90559F534
:102FD0006C0142E0C40ED11CCA14DB0420F1AC0128
:102FE0004A195B09DA011296159780F062827382A2
:102FF00051834083D9016D937C93E114F10471F006
:10300000D7011396FC93EE93129776CF22968C0FEE
:103010009D1FF90191838083F301EFCFF093450564
:10302000E093440569CF4816590608F42C017D0148
:10303000D3019ACFCB010E944A167C01009749F038
:10304000AE01B8010E942C18C8010E94E616870143
:1030500053CF10E000E050CFFB01DC0102C0019033
:103060000D9241505040D8F708956817790768F4D9
:10307000FB01DC01E40FF51FA40FB51F02C0029095
:103080000E9241505040D8F708950C942C18FC0132
:103090008191861721F08823D9F7992708953197D0
:1030A000CF010895FB01DC018D9101908019011081
:1030B000D9F3990B0895FB01DC0101900D920020DA
:1030C000E1F70895FB01DC014150504030F08D9153
:1030D0000190801919F40020B9F7881B990B089505
:1030E000FB01DC014150504048F001900D9200205E
:1030F000C9F701C01D9241505040E0F70895FC010E
:1031000081E090E00190061609F4CF010020D1F78C
:1031100001970895FB0151915523A9F0BF01DC01EE
:103120004D9145174111E1F759F4CD01019000206F
:1031300049F04D9140154111C9F3FB014111EFCF09
:1031400081E090E00197089510E0CDE5D0E004C063
:10315000FE010E9444162196CE35D107C9F7F89496
:10316000FFCFFFFF01000000460580004669657340
:103170007461000000000000000000010101010175
:103180000152656C616A61646F000000000000001C
:103190000000000000004E6F636865000000000042
:1031A0000000000000000000000000546F646F2069
:1031B0004F4E00000000000000000101010101016C
:1031C000546F646F204F464600000000000000006E
:1031D0000000000000766163696F000000000000DD
:1031E0000000000000000000000000000000A2023B
:1031F000D001FD01EF0260020C025202000000004B
:10320000B304860452055C047F046C045D04000072
:1032100000003B05D0015205CF010D0A00202020FF
:1032200020202020202020202020202020004D6F42
:10323000646F3A2000563A00204C45443A002D2D48
:103240002D2D2D2D2D2D2D2D2D2D2D2D2D2D2D2DAE
:103250002D2D0056656E74696C61646F723A2000A2
:103260004C4544533A20004F4646004552524F5277
:103270000046414C4C4F20454550524F4D00435560
:1032800053544F4D0041504147415220544F444FF9
:10329000003E3E2053697374656D6120536D617209
:1032A00074486F6D652047543A20454550524F4D44
:1032B0002079204D6F646F7320496E746567726169
:1032C000646F7320436F7272656374616D656E74B1
:1032D000652E000D006D6F646F5F666965737461C4
:1032E000006D6F646F5F72656C616A61646F006D21
:1032F0006F646F5F6E6F63686500656E63656E64B3
:1033000065725F746F646F006170616761725F7492
:103310006F646F006D6F646F5F637573746F6D5F63
:1033200031006D6F646F5F637573746F6D5F320032
:103330002F2F00636F6E665F696E6900636F6E6644
:103340003A66696E00C3895849544F3A20436F6EFC
:1033500066696775726163696F6E20677561726413
:1033600061646120656E20454550524F4D006D6F80
:10337000646F5F637573746F6D3A004572726F723C
:103380003A204172636869766F2E6F7267005665E6
:103390006E74696C61646F723A004C454427533A0D
:1033A0000073616C613A4F4E00636F6D65646F72BC
:1033B0003A4F4E00636F63696E613A4F4E0062612F
:1033C000C3B16F3A4F4E0062616E6F3A4F4E006864
:1033D000616269746163696F6E3A4F4E00414C548B
:0833E00045524E414E444F00DE
:107E0000112484B714BE81FFF0D085E080938100F7
:107E100082E08093C00088E18093C10086E0809377
:107E2000C20080E18093C4008EE0C9D0259A86E02C
:107E300020E33CEF91E0309385002093840096BBD3
:107E4000B09BFECF1D9AA8958150A9F7CC24DD24C4
:107E500088248394B5E0AB2EA1E19A2EF3E0BF2EE7
:107E6000A2D0813461F49FD0082FAFD0023811F036
:107E7000013811F484E001C083E08DD089C08234E0
:107E800011F484E103C0853419F485E0A6D080C0E4
:107E9000853579F488D0E82EFF2485D0082F10E0AE
:107EA000102F00270E291F29000F111F8ED06801E7
:107EB0006FC0863521F484E090D080E0DECF843638
:107EC00009F040C070D06FD0082F6DD080E0C81688
:107ED00080E7D80618F4F601B7BEE895C0E0D1E017
:107EE00062D089930C17E1F7F0E0CF16F0E7DF06D8
:107EF00018F0F601B7BEE89568D007B600FCFDCFD4
:107F0000A601A0E0B1E02C9130E011968C91119780
:107F100090E0982F8827822B932B1296FA010C0160
:107F200087BEE89511244E5F5F4FF1E0A038BF0790
:107F300051F7F601A7BEE89507B600FCFDCF97BE46
:107F4000E89526C08437B1F42ED02DD0F82E2BD052
:107F50003CD0F601EF2C8F010F5F1F4F84911BD097
:107F6000EA94F801C1F70894C11CD11CFA94CF0C13
:107F7000D11C0EC0853739F428D08EE10CD085E9AC
:107F80000AD08FE07ACF813511F488E018D01DD067
:107F900080E101D065CF982F8091C00085FFFCCF94
:107FA0009093C60008958091C00087FFFCCF809118
:107FB000C00084FD01C0A8958091C6000895E0E648
:107FC000F0E098E1908380830895EDDF803219F02E
:107FD00088E0F5DFFFCF84E1DECF1F93182FE3DFCA
:107FE0001150E9F7F2DF1F91089580E0E8DFEE27F6
:047FF000FF270994CA
:027FFE00040479
:00000001FF
