:020000040000FA
:100000000C945E000C9486000C9486000C94860080
:100010000C9486000C9486000C9486000C94860048
:100020000C9486000C9486000C9486000C94860038
:100030000C9486000C9486000C9486000C94860028
:100040000C9435030C9486000C94A5030C947F0348
:100050000C9486000C9486000C9486000C94860008
:100060000C9486000C948600000000080002010039
:100070000003040700000000000000000000000072
:10008000250028002B0000000000240027002A0083
:10009000040404040404040402020202020203032E
:1000A0000303030301020408102040800102040836
:1000B0001020010204081020D703930711241FBE4B
:1000C000CFEFD8E0DEBFCDBF22E0A4E8B1E001C0B1
:1000D0001D92AF34B207E1F711E0A0E0B1E0EEEA23
:1000E000F3E102C005900D92A438B107D9F710E0F2
:1000F000CDE5D0E004C02197FE010E94D207CC35A7
:10010000D107C9F70E940F040C94CA090C9400008F
:1001100090E0FC01EC55FF4F249180579F4FFC016C
:100120008491882399F090E0880F991FFC01EA5789
:10013000FF4FA591B491FC01E458FF4F8591949134
:100140008FB7F894EC91E22BEC938FBF089590E079
:10015000FC01E859FF4F2491FC01EC55FF4F34910D
:10016000FC01E057FF4FE491EE23C9F0222339F060
:10017000233001F1A8F4213019F1223029F1F0E007
:10018000EE0FFF1FE458FF4FA591B4918FB7F8947D
:10019000EC91611126C030953E233C938FBF0895AA
:1001A0002730A9F02830C9F0243049F78091800029
:1001B0008F7D03C0809180008F7780938000DFCF98
:1001C00084B58F7784BDDBCF84B58F7DFBCF8091E5
:1001D000B0008F778093B000D2CF8091B0008F7D38
:1001E000F9CF3E2BDACFAF92BF92CF92DF92EF9250
:1001F000FF920F931F93CF93DF936C017B018B01D1
:10020000040F151FEB015E01AE18BF08C017D10720
:1002100059F06991D601ED91FC910190F081E02DAA
:10022000C6010995892B79F7C501DF91CF911F91FF
:100230000F91FF90EF90DF90CF90BF90AF90089517
:10024000FC01538D448D252F30E0842F90E0821BDC
:10025000930B541710F0CF96089501970895FC0161
:10026000918D828D981761F0A28DAE0FBF2FB11DB9
:100270005D968C91928D9F5F9F73928F90E0089511
:100280008FEF9FEF0895FC01918D828D981731F0CB
:10029000828DE80FF11D858D90E008958FEF9FEF1F
:1002A0000895FC01918D228D892F90E0805C9F4FF5
:1002B000821B91098F739927089582EA91E00E9429
:1002C000510121E0892B09F420E0822F089580E07C
:1002D00090E0892B29F00E945D0181110C940000AF
:1002E0000895FC01A48DA80FB92FB11DA35ABF4FCB
:1002F0002C91848D90E001968F739927848FA68925
:10030000B7892C93A089B1898C91837080648C9378
:10031000938D848D981306C00288F389E02D808127
:100320008F7D80830895EF92FF920F931F93CF9359
:10033000DF93EC0181E0888F9B8D8C8D98131AC020
:10034000E889F989808185FF15C09FB7F894EE8907
:10035000FF896083E889F989808183708064808364
:100360009FBF81E090E0DF91CF911F910F91FF90AF
:10037000EF900895F62E0B8D10E00F5F1F4F0F7357
:100380001127E02E8C8D8E110CC00FB607FCFACF12
:10039000E889F989808185FFF5CFCE010E9471013E
:1003A000F1CFEB8DEC0FFD2FF11DE35AFF4FF082E3
:1003B0009FB7F8940B8FEA89FB8980818062CFCF49
:1003C000CF93DF93EC01888D8823B9F0AA89BB898C
:1003D000E889F9898C9185FD03C0808186FD0DC077
:1003E0000FB607FCF7CF8C9185FFF2CF808185FF98
:1003F000EDCFCE010E947101E9CFDF91CF91089539
:1004000060E082E00E94A70060E083E00E94A70015
:1004100060E084E00E94A70060E085E00E94A70001
:1004200060E086E00E94A70060E089E00C94A700ED
:1004300042E050E068E171E082EA91E00C94F30060
:10044000CF93DF93FC01448155816081718182EA01
:1004500091E00E94F300EC010E9418028C0F9D1F96
:10046000DF91CF910895CF93DF93EC01888199813B
:10047000009711F00E947408198218821D821C8254
:100480001B821A82DF91CF910895FC0180819181B6
:10049000009711F00C94740808950F931F93CF9355
:1004A000DF93EC0188819981009759F02A813B8183
:1004B0002617370730F081E0DF91CF911F910F9120
:1004C00008958B016F5F7F4F0E94FD08009759F0E0
:1004D000998388831B830A832C813D81232B59F7C1
:1004E000FC011082E8CF80E0E7CFEF92FF920F93FC
:1004F0001F93CF93DF93EC01FB01E080F180E114C7
:10050000F10411F10481158101151105A9F08C8107
:100510009D81080F191FB801CE010E944D0288234A
:1005200099F0288139818C819D81B701820F931FB9
:100530000E94C3091D830C83CE01DF91CF911F91CF
:100540000F91FF90EF900895CE010E943302F4CFF7
:10055000EF92FF920F931F93CF93DF93EC017B01F8
:10056000198218821B821A821D821C82FB01019053
:100570000020E9F731978F01061B170BB8010E9485
:100580004D02811109C0CE01DF91CF911F910F91D2
:10059000FF90EF900C9433021D830C83B701888188
:1005A0009981DF91CF911F910F91FF90EF900C9463
:1005B000C309CF92DF92EF92FF920F931F93CF93D5
:1005C000DF9300D000D000D0CDB7DEB76C017B0147
:1005D0008A0144E150E06BE171E082EA91E00E941F
:1005E000F3000E94180260E371E0CE0101960E94C0
:1005F000A802B601CE0101960E9475020E94200257
:10060000CE0101960E94450267E371E0CE0101969A
:100610000E94A802B701CE0101960E9475020E94B5
:100620002002CE0101960E94450264E471E0CE01F1
:1006300001960E94A802B801CE0101960E9475029F
:100640000E942002CE0101960E94450226960FB616
:10065000F894DEBF0FBECDBFDF91CF911F910F91F8
:10066000FF90EF90DF90CF9008951F920F920FB6FA
:100670000F9211242F933F938F939F93AF93BF9328
:1006800080919E0190919F01A091A001B091A10144
:1006900030919D0123E0230F2D3758F50196A11DC0
:1006A000B11D20939D0180939E0190939F01A09383
:1006B000A001B093A1018091990190919A01A0911C
:1006C0009B01B0919C010196A11DB11D80939901E0
:1006D00090939A01A0939B01B0939C01BF91AF911D
:1006E0009F918F913F912F910F900FBE0F901F9070
:1006F000189526E8230F0296A11DB11DD2CF1F9297
:100700000F920FB60F9211242F933F934F935F9345
:100710006F937F938F939F93AF93BF93EF93FF93C9
:1007200082EA91E00E947101FF91EF91BF91AF9138
:100730009F918F917F916F915F914F913F912F91F9
:100740000F900FBE0F901F9018951F920F920FB62B
:100750000F9211242F938F939F93EF93FF93E09128
:10076000B201F091B3018081E091B801F091B9013B
:1007700082FD1BC090818091BB018F5F8F732091A0
:10078000BC01821741F0E091BB01F0E0EE55FE4F55
:10079000958F8093BB01FF91EF919F918F912F9146
:1007A0000F900FBE0F901F9018958081F4CFE2EA52
:1007B000F1E01382128288EE93E0A0E0B0E084833F
:1007C0009583A683B7838AE091E09183808385EC4B
:1007D00090E09587848784EC90E09787868780EC0B
:1007E00090E0918B808B81EC90E0938B828B82ECFC
:1007F00090E0958B848B86EC90E0978B868B118EA6
:10080000128E138E148E6AE171E085E492E00E94EC
:10081000A8026AE171E08FE392E00C94A802CF9302
:10082000DF93CDB7DEB762970FB6F894DEBF0FBE89
:10083000CDBF789484B5826084BD84B5816084BD69
:1008400085B5826085BD85B5816085BD80916E006E
:10085000816080936E00109281008091810082609F
:1008600080938100809181008160809381008091DC
:1008700080008160809380008091B10084608093CB
:10088000B1008091B00081608093B00080917A00C7
:10089000846080937A0080917A00826080937A00ED
:1008A00080917A00816080937A0080917A008068DC
:1008B00080937A001092C100E091B201F091B301EF
:1008C00082E08083E091AE01F091AF011082E0916F
:1008D000B001F091B1018FEC80831092BA01E091E8
:1008E000B601F091B70186E08083E091B401F09108
:1008F000B501808180618083E091B401F091B50100
:10090000808188608083E091B401F091B50180819D
:1009100080688083E091B401F091B50180818F7D82
:10092000808382E00E94880083E00E94880084E047
:100930000E94880085E00E94880086E00E9488006E
:1009400089E00E9488000E94000262E571E0CE0109
:1009500001960E94A80209811A810115110549F02A
:10096000ED80FE80B70185E492E00E944D02811186
:1009700058C085E492E00E94330210928C0181E01D
:10098000809391018093900110928F0110928E01BB
:1009900010928D01CE0101960E9445022FB7F89466
:1009A00080919E0190919F01A091A001B091A10121
:1009B0002FBF8093930190939401A0939501B093DE
:1009C000960194E0C92ED12CAA24A394B12C3324EF
:1009D000339480E0882E80E0982E8FB7F894409072
:1009E0009E0150909F016090A0017090A1018FBF67
:1009F00080919701909198018230910509F4AAC1E4
:100A0000E4F4009709F4A5C0019709F44EC18114DC
:100A1000910419F30E945D018823C9F20E9400002D
:100A2000D6CFF0924A02E0924902B8018091450285
:100A3000909146020E94C309A0CF8430910509F429
:100A400043C20CF4D8C1059711F76091910182E07F
:100A50000E94A7006091900183E00E94A70060912E
:100A60008F0184E00E94A70060918E0185E00E94C2
:100A7000A70060918D0186E00E94A70010918C0173
:100A8000612F89E00E94A7006CE771E0CE0101961A
:100A90000E94A8026EE471E0112311F06BE471E092
:100AA000CE0107960E94A8021E861D86188A1F8600
:100AB0001A8A198A00914502109146020115110502
:100AC00079F0E0904902F0904A02B701CE010D960C
:100AD0000E944D0281111FC2CE010D960E94330269
:100AE000AE014F5F5F4FBE01695F7F4FCE010D9634
:100AF0000E94D902CE010D960E944502CE010796B2
:100B00000E944502CE0101960E9445028091930108
:100B100090919401A0919501B09196019301820169
:100B2000081B190B2A0B3B0BD901C801883B9B40C2
:100B3000A105B10508F46BCF409293015092940146
:100B4000609295017092960110929801109297010F
:100B50005ECF61E089E00E94A7008091920181113F
:100B60002AC067E571E0CE0101960E94A8026BE4FD
:100B700071E0CE0107960E94A80262E671E0CE0104
:100B80000D960E94A802AE014F5F5F4FBE01695FE4
:100B90007F4FCE010D960E94D902CE010D960E9484
:100BA0004502CE0107960E944502CE0101960E94A1
:100BB0004502309292012FB7F89480919E01909156
:100BC0009F01A091A001B091A1012FBF409185018B
:100BD0005091860160918701709188018C019D017F
:100BE000041B150B260B370BB901A8014436510520
:100BF0006105710518F18093850190938601A0939A
:100C00008701B093880180918401832580938401BA
:100C10008823C9F161E082E00E94A70061E084E0DE
:100C20000E94A70061E086E00E94A70060E083E0E8
:100C30000E94A70060E085E00E94A70080919301D8
:100C400090919401A0919501B0919601A301920118
:100C5000281B390B4A0B5B0BDA01C901883B9B400F
:100C6000A105B10508F4D3CE4092930150929401AE
:100C7000609295017092960110929201B092980143
:100C8000A0929701C4CE60E082E00E94A70060E0DD
:100C900084E00E94A70060E086E00E94A70061E077
:100CA00083E00E94A70061E0C6CF80918901811195
:100CB0002CC00E9400026EE471E0CE010D960E94ED
:100CC000A8026EE471E0CE0107960E94A80269E6D0
:100CD00071E0CE0101960E94A802AE01435F5F4F12
:100CE000BE01695F7F4FCE0101960E94D902CE01FD
:100CF00001960E944502CE0107960E944502CE0150
:100D00000D960E9445023092890180919301909145
:100D10009401A0919501B091960193018201081B65
:100D2000190B2A0B3B0BD901C801883B9B40A1053D
:100D3000B10508F46CCE40929301509294016092F8
:100D400095017092960122E030E030939801209353
:100D500097015DCE80918A0181112CC00E94000212
:100D60006EE471E0CE010D960E94A8026EE471E07F
:100D7000CE0107960E94A80262E771E0CE010196BB
:100D80000E94A802AE01435F5F4FBE01695F7F4FC3
:100D9000CE0101960E94D902CE0101960E94450221
:100DA000CE0107960E944502CE010D960E94450293
:100DB00030928A018091930190919401A0919501C4
:100DC000B091960193018201081B190B2A0B3B0B72
:100DD000D901C801883B9B40A105B10508F417CE95
:100DE0004092930150929401609295017092960105
:100DF00023E030E0AACF80918B01811142C061E0F5
:100E000082E00E94A70061E083E00E94A70061E009
:100E100084E00E94A70061E085E00E94A70061E0F5
:100E200086E00E94A70061E089E00E94A7006BE4D1
:100E300071E0CE010D960E94A8026BE471E0CE0134
:100E400007960E94A80268E771E0CE0101960E9411
:100E5000A802AE01435F5F4FBE01695F7F4FCE01C5
:100E600001960E94D902CE0101960E944502CE0150
:100E700007960E944502CE010D960E9445023092CF
:100E80008B018091930190919401A0919501B09173
:100E9000960193018201081B190B2A0B3B0BD90108
:100EA000C801883B9B40A105B10508F4B0CD409234
:100EB0009301509294016092950170929601D092A4
:100EC0009801C0929701A3CD0E94000280919301E6
:100ED00090919401A0919501B0919601A301920186
:100EE000281B390B4A0B5B0BDA01C901883B9B407D
:100EF000A105B10508F48BCD409293015092940165
:100F0000609295017092960145E050E050939801EF
:100F1000409397017CCDFA8AE98AB8018D859E8538
:100F20000E94C309DDCD8FE392E00E94450285E473
:100F300092E00C9445022F923F924F925F926F92F3
:100F40007F928F929F92AF92BF92CF92DF92EF9259
:100F5000FF920F931F93CF93DF93CDB7DEB7CA1BDA
:100F6000DB0B0FB6F894DEBF0FBECDBF09942A8805
:100F7000398848885F846E847D848C849B84AA84AD
:100F8000B984C884DF80EE80FD800C811B81AA813A
:100F9000B981CE0FD11D0FB6F894DEBF0FBECDBF05
:100FA000ED010895EE0FFF1F0590F491E02D0994D7
:100FB0000F931F93CF93DF938230910510F482E05B
:100FC00090E0E0914D02F0914E0230E020E0B0E080
:100FD000A0E0309799F42115310509F44AC0281B87
:100FE000390B24303105D8F58A819B816115710553
:100FF00089F1FB0193838283FE0111C040815181FD
:101000000281138148175907E0F04817590799F4EE
:10101000109761F012960C93129713961C933296C8
:10102000CF01DF91CF911F910F91089500934D0251
:1010300010934E02F4CF2115310551F0421753079A
:1010400038F0A901DB019A01BD01DF01F801C1CF30
:10105000EF01F9CF90934E0280934D02CDCFFE0168
:10106000E20FF31F81939193225031093983288332
:10107000D7CF20914B0230914C02232B41F4209189
:1010800002013091030130934C0220934B022091D6
:101090000001309101012115310541F42DB73EB712
:1010A0004091040150910501241B350BE0914B0246
:1010B000F0914C02E217F307A0F42E1B3F0B281708
:1010C000390778F0AC014E5F5F4F2417350748F0C1
:1010D0004E0F5F1F50934C0240934B0281939193AC
:1010E0009FCFF0E0E0E09CCFCF93DF930097E9F053
:1010F000FC01329713821282A0914D02B0914E02F0
:10110000ED0130E020E01097A1F420813181820FC1
:10111000931F20914B0230914C022817390709F098
:1011200061C0F0934C02E0934B02DF91CF910895A0
:10113000EA01CE17DF07E8F54A815B819E01411580
:101140005105B1F7E901FB83EA8349915991C40F35
:10115000D51FEC17FD0761F4808191810296840F01
:10116000951FE90199838883828193819B838A8378
:10117000F0E0E0E012968D919C9113970097B9F5FD
:101180002D913C911197CD010296820F931F2091D2
:101190004B0230914C022817390739F6309751F538
:1011A00010924E0210924D02B0934C02A0934B024B
:1011B000BCCFD383C28340815181840F951FC81750
:1011C000D90761F44E5F5F4F88819981480F591F9D
:1011D000518340838A819B819383828321153105CA
:1011E00009F0B0CFF0934E02E0934D029ECFFD0187
:1011F000DC01C0CF13821282D7CFB0E0A0E0E3E0E1
:10120000F9E00C949D078C01009751F4CB010E94EA
:10121000D8078C01C801CDB7DEB7E0E10C94B9075F
:10122000FC01E60FF71F9C0122503109E217F3077A
:1012300008F49DC0D901CD91DC911197C617D7074D
:1012400098F0C530D10530F3CE0104978617970783
:1012500008F3C61BD70B2297C193D1936D937C9350
:10126000CF010E947408D6CF5B01AC1ABD0A4C01B5
:101270008C0E9D1EA0914D02B0914E02512C412C1E
:10128000F12CE12C109731F580914B0290914C029A
:101290008815990509F05CC04616570608F058C035
:1012A0008091000190910101009741F48DB79EB7A4
:1012B0004091040150910501841B950BE817F90733
:1012C00008F055C0F0934C02E0934B02F901718392
:1012D0006083A0CF8D919C91119712966C9012977C
:1012E00013967C901397A815B90559F56C0142E047
:1012F000C40ED11CCA14DB0420F1AC014A195B09ED
:10130000DA011296159780F06282738251834083CE
:10131000D9016D937C93E114F10471F0D701139618
:10132000FC93EE93129776CF22968C0F9D1FF901B6
:1013300091838083F301EFCFF0934E02E0934D024F
:1013400069CF4816590608F42C017D01D3019ACFC4
:10135000CB010E94D8077C01009749F0AE01B8018B
:101360000E94BA09C8010E947408870153CF10E097
:1013700000E050CFFB01DC0102C001900D92415012
:101380005040D8F70895FB01DC0101900D92002038
:10139000E1F7089510E0CDE5D0E004C0FE010E9421
:1013A000D2072196CE35D107C9F7F894FFCF0000B8
:1013B0004F028000000000009301F3002001E001D3
:1013C00051012F0143010D0A002D2D2D2D2D2D2D05
:1013D0002D2D2D2D2D2D2D2D2D2D2D2D2D004D6F08
:1013E000646F3A200056656E74696C61646F723A7E
:1013F00020004C4544533A20004F4E004F464600D3
:1014000043454E4100414C5445524E414E444F00DD
:101410004649455354410052454C414A41444F00CE
:101420004E4F43484500414C4C00435553544F4D9B
:021430000000BA
:107E0000112484B714BE81FFF0D085E080938100F7
:107E100082E08093C00088E18093C10086E0809377
:107E2000C20080E18093C4008EE0C9D0259A86E02C
:107E300020E33CEF91E0309385002093840096BBD3
:107E4000B09BFECF1D9AA8958150A9F7CC24DD24C4
:107E500088248394B5E0AB2EA1E19A2EF3E0BF2EE7
:107E6000A2D0813461F49FD0082FAFD0023811F036
:107E7000013811F484E001C083E08DD089C08234E0
:107E800011F484E103C0853419F485E0A6D080C0E4
:107E9000853579F488D0E82EFF2485D0082F10E0AE
:107EA000102F00270E291F29000F111F8ED06801E7
:107EB0006FC0863521F484E090D080E0DECF843638
:107EC00009F040C070D06FD0082F6DD080E0C81688
:107ED00080E7D80618F4F601B7BEE895C0E0D1E017
:107EE00062D089930C17E1F7F0E0CF16F0E7DF06D8
:107EF00018F0F601B7BEE89568D007B600FCFDCFD4
:107F0000A601A0E0B1E02C9130E011968C91119780
:107F100090E0982F8827822B932B1296FA010C0160
:107F200087BEE89511244E5F5F4FF1E0A038BF0790
:107F300051F7F601A7BEE89507B600FCFDCF97BE46
:107F4000E89526C08437B1F42ED02DD0F82E2BD052
:107F50003CD0F601EF2C8F010F5F1F4F84911BD097
:107F6000EA94F801C1F70894C11CD11CFA94CF0C13
:107F7000D11C0EC0853739F428D08EE10CD085E9AC
:107F80000AD08FE07ACF813511F488E018D01DD067
:107F900080E101D065CF982F8091C00085FFFCCF94
:107FA0009093C60008958091C00087FFFCCF809118
:107FB000C00084FD01C0A8958091C6000895E0E648
:107FC000F0E098E1908380830895EDDF803219F02E
:107FD00088E0F5DFFFCF84E1DECF1F93182FE3DFCA
:107FE0001150E9F7F2DF1F91089580E0E8DFEE27F6
:047FF000FF270994CA
:027FFE00040479
:00000001FF
