:020000040000FA
:100000000C94B5010C94DD010C94DD010C94BF0E31
:100010000C94BF0E0C94BF0E0C94DD010C94DD010A
:100020000C94DD010C94DD010C94DD010C94561050
:100030000C94DD010C94DD010C94DD010C94DD01C8
:100040000C941D0E0C94DD010C948D0E0C94670E17
:100050000C94DD010C94DD010C94DD010C94DD01A8
:100060000C94370F0C94DD012D2D2D2D2D2D2D2DC4
:100070002D2D2D2D2D2D2D2D2D2D2D2D002D2D2DDD
:100080002D2D2D2D2D2D2D2D2D2D2D2D2D2D2D2DA0
:100090002D2D2D2D2D2D2D2D2D2D2D2D2D2D2D2D90
:1000A0002D2D2D2D2D2D2D2D2D2D00506F722066D7
:1000B00061766F722C20726576697361206C6F7344
:1000C000206361626C65733A205643432C20474E8F
:1000D000442C2053444120792053434C2E00414C62
:1000E000455254413A204E6F207365206465746513
:1000F00063746F206E696E67756E20646973706FCC
:1001000073697469766F204932432E0045737461B8
:10011000646F2064656C204C43443A204D656E73D7
:10012000616A6520656E766961646F20636F6E2019
:10013000657869746F2E0045737461646F2064651F
:100140006C204C43443A20496E696369616C697A5A
:10015000616E646F2E2E2E002D2D2D2D2D2D2D2D0B
:100160002D2D2D2D2D2D2D2D2D2D2D2D2D2D2D2DBF
:100170002D2D2D2D2D2D2D2D2D2D2D2D2D2D2D2DAF
:100180002D2D2D2D2D00457363616E656F206669E1
:100190006E616C697A61646F2E0030002D3E2045DF
:1001A00072726F7220646573636F6E6F6369646FE0
:1001B00020656E206C6120646972656363696F6E8F
:1001C0002030780030002D3E20C2A1444953504FCA
:1001D00053495449564F20454E434F4E5452414483
:1001E0004F20656E206C6120646972656363696F7E
:1001F0006E3A20307800457363616E65616E646F9E
:1002000020627573204932432E2E2E000A2D2D2D8B
:1002100020455343414E454F2059205645524946AB
:100220004943414349C3934E2044452050554552CC
:10023000544F5320493243202D2D2D004545505217
:100240004F4D20696E696369616C697A6164610010
:10025000454550524F4D20796120636F6E66696746
:100260007572616461003E3E2053697374656D610F
:1002700020536D617274486F6D652047543A204574
:100280004550524F4D2079204D6F646F7320496E59
:100290007465677261646F7320436F727265637413
:1002A000616D656E74652E00436F6E666967757269
:1002B0006163696F6E206775617264616461004992
:1002C0006E6963696F206465206361726761204FA6
:1002D000524700526563696269646F20706F7220D3
:1002E0005553423A2000426F746F6E2070726573EE
:1002F000696F6E61646F3A204163746976616E6400
:100300006F20536572766F2E2E2E000000000024A1
:100310000027002A0000000008000201000003047A
:10032000070000000000000000000000002300267D
:1003300000290000000000250028002B0004040410
:10034000040404040402020202020203030303037E
:10035000030102040810204080010204081020015B
:100360000204081020001211471C11241FBECFEFF9
:10037000D8E0DEBFCDBF13E0A0E0B1E0ECEAFFE3E0
:1003800002C005900D92A231B107D9F725E0A2E194
:10039000B3E001C01D92AE33B207E1F711E0C4EB48
:1003A000D1E004C02197FE010E94611DC33BD1072B
:1003B000C9F70E9411120C94C91F0C940000DC01B3
:1003C000ED91FC910280F381E02D42E050E066EC7B
:1003D00071E009948F929F92AF92BF92FF920F9318
:1003E0001F93CF93DF93F0900B052BE02F1508F4AC
:1003F0004CC020910D0508E512E0021B110927FDF4
:100400001395000F111F000F111F20910C05C8E854
:10041000D0E0C21BD10927FDD395CC0FDD1FCC0F37
:10042000DD1F4E010D2E000CAA08BB089801012EFD
:10043000000C440B550B281939094A095B09DC01EA
:100440000E94E51C24EB30E040E050E00E94BB1C21
:10045000820E931EA41EB51E8C169D062CF0E8017C
:10046000801691060CF4E4012297CC0FDD1F2FB704
:10047000F8948F2D90E0FC01EE0FFF1FE80FF91F9D
:10048000EC52FB4FD283C1832FBFDF91CF911F91DD
:100490000F91FF90BF90AF909F908F900895833001
:1004A00081F028F4813099F08230A9F008958730E6
:1004B000A9F08830C9F08430B1F4809180008F7D3C
:1004C00003C0809180008F7780938000089584B569
:1004D0008F7784BD089584B58F7DFBCF8091B00068
:1004E0008F778093B00008958091B0008F7DF9CF11
:1004F0001F93CF93DF93282F30E0F901EB5EFC4F81
:100500008491F901EF5AFC4FD491F901E35CFC4F5F
:10051000C491CC23A9F0162F81110E944F02EC2F19
:10052000F0E0EE0FFF1FED5CFC4FA591B4918FB78B
:10053000F894EC91111108C0D095DE23DC938FBFA5
:10054000DF91CF911F910895DE2BF8CFCF93DF93EA
:1005500090E0FC01EF5AFC4F2491835C9C4FFC011E
:1005600084918823C9F090E0880F991FFC01E55F12
:10057000FC4FA591B491FC01ED5CFC4FC591D49169
:1005800061110DC09FB7F8948C91209582238C93B4
:100590008881282328839FBFDF91CF9108956230FF
:1005A00051F49FB7F8943C91822F809583238C93CC
:1005B000E8812E2BEFCF8FB7F894EC912E2B2C9354
:1005C0008FBFEACF3FB7F8948091D7039091D803BB
:1005D000A091D903B091DA0326B5A89B05C02F3F9F
:1005E00019F00196A11DB11D3FBFBA2FA92F982F59
:1005F0008827BC01CD01620F711D811D911D42E054
:10060000660F771F881F991F4A95D1F708958F921B
:100610009F92AF92BF92CF92DF92EF92FF924B01E7
:100620005C010E94E2026B017C010E94E2026C19F3
:100630007D098E099F09683E734081059105A8F3E5
:1006400021E0821A9108A108B10888EEC80E83E063
:10065000D81EE11CF11C81149104A104B10429F7F6
:10066000FF90EF90DF90CF90BF90AF909F908F90D2
:1006700008952FB7F8946091D3037091D4038091BB
:10068000D5039091D6032FBF089508950895089536
:100690000F931F93CF93DF93EC010E943903688778
:1006A00079878A879B87E881F9810284F385E02D29
:1006B000CE01099597FF15C00E9439030885198559
:1006C0002A853B85601B710B820B930B0C811D816E
:1006D0002E813F81601771078207930720F38FEF08
:1006E0009FEFDF91CF911F910F910895DB01149639
:1006F0004D915C9115976D917C91DC01ED91FC9190
:100700000280F381E02D0994EF92FF920F931F93E3
:10071000CF93DF938C017B01D0E0C0E0F701EC0FB9
:10072000FD1F6491662361F0D801ED91FC91019069
:10073000F081E02DC8010995892B11F02196EECFAB
:10074000CE01DF91CF911F910F91FF90EF9008950F
:10075000AF92BF92CF92DF92EF92FF920F931F93CF
:10076000CF93DF936C017B018B01040F151FEB010D
:100770005E01AE18BF08C017D10759F06991D601C4
:10078000ED91FC910190F081E02DC6010995892B36
:1007900079F7C501DF91CF911F910F91FF90EF90F5
:1007A000DF90CF90BF90AF900895FC01538D448DA2
:1007B000252F30E0842F90E0821B930B541710F00C
:1007C000CF96089501970895FC01918D828D981719
:1007D00061F0A28DAE0FBF2FB11D5D968C91928DF1
:1007E0009F5F9F73928F90E008958FEF9FEF089522
:1007F000FC01918D828D981731F0828DE80FF11DEB
:10080000858D90E008958FEF9FEF0895FC01918D05
:10081000228D892F90E0805C9F4F821B91098F73FE
:10082000992708958BE294E00E94060421E0892B29
:1008300009F420E0822F089580E090E0892B29F0D0
:100840000E94120481110C9400000895FC01A48DF3
:10085000A80FB92FB11DA35ABF4F2C91848D90E0E2
:1008600001968F739927848FA689B7892C93A089C5
:10087000B1898C91837080648C93938D848D98134F
:1008800006C00288F389E02D80818F7D80830895E2
:10089000EF92FF920F931F93CF93DF93EC0181E0D0
:1008A000888F9B8D8C8D98131AC0E889F989808177
:1008B00085FF15C09FB7F894EE89FF896083E889AA
:1008C000F98980818370806480839FBF81E090E09C
:1008D000DF91CF911F910F91FF90EF900895F62E29
:1008E0000B8D10E00F5F1F4F0F731127E02E8C8DC3
:1008F0008E110CC00FB607FCFACFE889F989808108
:1009000085FFF5CFCE010E942604F1CFEB8DEC0FD1
:10091000FD2FF11DE35AFF4FF0829FB7F8940B8F24
:10092000EA89FB8980818062CFCFCF93DF93EC018E
:10093000888D8823B9F0AA89BB89E889F9898C91C7
:1009400085FD03C0808186FD0DC00FB607FCF7CF83
:100950008C9185FFF2CF808185FFEDCFCE010E9483
:100960002604E9CFDF91CF9108952091B90330910A
:10097000BA032817390771F49091B7038091B8032F
:10098000981741F0E091B703F0E0E958FC4F8081FF
:1009900090E008958FEF9FEF08950895EF92FF92F2
:1009A0000F931F93CF93DF93DC015C96ED90FC9047
:1009B0005D97E114F10479F481E090E013969C9343
:1009C0008E93129790E080E0DF91CF911F910F916D
:1009D000FF90EF9008955196ED91FC9152975096AB
:1009E0008C915097982F90950FB75E962C915E97AB
:1009F000122F127021FD6095F8942081112319F1B6
:100A0000282B2083E7012197F1F728E0462F50E0BB
:100A1000308160FF1AC0382B3083E7012197F1F74E
:100A2000BA0175956795215089F7112381F080816E
:100A3000892380830FBF5C968D919C910197F1F77C
:100A400081E090E0C1CF2923DCCF3923E5CF90812D
:100A5000892BEFCF2091B9033091BA0328173907BA
:100A600061F48091B8032091B70390E0805C9F4FC0
:100A7000821B91098F739927089590E080E0089573
:100A80002091B9033091BA0328173907B9F490912E
:100A9000B7038091B803981789F0E091B703F0E0AD
:100AA000E958FC4F80812091B70330E02F5F3F4F22
:100AB0002F7333272093B70390E008958FEF9FEFB4
:100AC000089520915403260F3327331F2132310517
:100AD000ECF420910104FC0190E080E0243069F006
:100AE00082E00895A09154032191AC014C5C5C4FCD
:100AF000A40FB52FB11D2C930196861798F3809102
:100B00005403680F6093540380E0089581E00895D2
:100B10001092010481E0809300041092DB0361E0F5
:100B200082E10E94780261E083E10E947802E9EBB1
:100B3000F0E080818E7F808380818D7F808388E458
:100B40008093B80085E48093BC000895CF93DF9331
:100B500091E0909333038823B9F0C091B800D0910D
:100B6000BA008091BC008A7B8093BC0060E082E187
:100B70000E94780260E083E10E9478020E9488056A
:100B8000D093BA00C093B800DF91CF910895CF926F
:100B9000DF92EF92FF920F931F93CF93DF93D09149
:100BA0002A0481E0D13208F09CC0C09129040E943F
:100BB000E2026B017C018091010481116CC082E032
:100BC0008093010481E0809300048FEF8093FF0302
:100BD0001092FE03D093FD03A9E0B4E0EDEDF3E045
:100BE00080E0D8138DC01092DC038091DC03CC0F21
:100BF000C82BC093DC038091DB03813009F084C0F3
:100C00001092DB030E94E2026B017C018091DC0305
:100C10008093BB008091030490910404A09105048B
:100C2000B0910604892B8A2B8B2BA1F00E94E20243
:100C300000910304109104042091050430910604EE
:100C40006C197D098E099F090617170728073907B0
:100C500008F442C08091BC0083FDD8CF85EC80931E
:100C6000BC000E94E2026B017C0180910104823091
:100C700009F44CC08091FF038F3F09F469C0809153
:100C8000FF03803209F466C08091FF03803309F4CA
:100C900063C084E026C08091030490910404A09175
:100CA0000504B0910604892B8A2B8B2B09F483CF82
:100CB0000E94E202009103041091040420910504B3
:100CC000309106046C197D098E099F0906171707D4
:100CD0002807390708F06FCF809102040E94A6050B
:100CE00085E01092080410922A0410920704DF9104
:100CF000CF911F910F91FF90EF90DF90CF900895CB
:100D00009D9191938F5F6DCF85EEA9CF8091030464
:100D100090910404A0910504B0910604892B8A2BBC
:100D20008B2B09F4A2CF0E94E202009103041091E0
:100D3000040420910504309106046C197D098E0984
:100D40009F09061717072807390708F08ECFC4CF69
:100D500080E0C7CF82E0C5CF83E0C3CFE091C0037E
:100D60008091BF03E81730F4F0E0ED5EFC4F808126
:100D700090E008958FEF9FEF08959091C0038091C8
:100D8000BF032FEF3FEF981748F4E92FF0E0ED5E37
:100D9000FC4F208130E09F5F9093C003C90108950C
:100DA0008091BF039091C003891B990B0895CF9246
:100DB000DF92EF92FF920F931F93CF93DF937C010B
:100DC000CB018A0120910704222389F0EB016B01FA
:100DD000C40ED51ECC15DD0569F06991D701ED91E2
:100DE000FC910190F081E02DC7010995F3CF642FAC
:100DF0000E946105C801DF91CF911F910F91FF9073
:100E0000EF90DF90CF900895CF93DF931F92CDB7EF
:100E1000DEB76983209107042223F9F020912A0488
:100E2000203258F021E030E0FC013383228390E04F
:100E300080E00F90DF91CF91089580910804E82F12
:100E4000F0E0E75FFB4F998190838F5F8093080408
:100E500080932A0481E090E0ECCF61E0CE0101961E
:100E60000E946105F7CFFC01248131E03093070433
:100E7000209329041092080410922A048485682B78
:100E800088EC94E00E9404070C94C70590E080E091
:100E90000895892B79F41092800082E0809381007C
:100EA0001092850010928400B19A80916F00826048
:100EB00080936F00089561E08EE00E94780260E008
:100EC00080E10C947802CF93DF930E945B07C3E02C
:100ED000D0E061E08FE00E94780266E970E080E097
:100EE00090E00E94070360E08FE00E94780266E9CC
:100EF00070E080E090E00E940703219751F7DF91B6
:100F0000CF910895CF93DF93EC01BC018BE294E085
:100F10000E9476038BE294E00E94DF01BE018BE128
:100F200095E00E9476038BE195E0DF91CF910C94E0
:100F3000DF01CF93DF93EC01BC018BE294E00E94D0
:100F40008403BE018BE195E0DF91CF910C94840383
:100F5000CF93DF93EC01BC018BE294E00E94840309
:100F60008BE294E00E94DF01BE018BE195E00E94DC
:100F700084038BE195E0DF91CF910C94DF010F9317
:100F80001F93CF938C01C62F0E9433076C2F646090
:100F9000C8010E9433076C2F6B7FC8010E94330782
:100FA00083EC90E00197F1F7CF911F910F91089595
:100FB0000F931F93CF93DF938C01D62FC42F607FA5
:100FC000642B0E94BF0780E1D89FB00111246C2BD5
:100FD000C801DF91CF911F910F910C94BF07CF9360
:100FE000DF93CDB7DEB728970FB6F894DEBF0FBEFC
:100FF000CDBF98E0EEE0F1E0DE01119601900D9298
:101000009A95E1F790911605981708F48FEF90E004
:10101000880F991F21E030E02C0F3D1F820F931F96
:10102000FC016081606840E08EE095E028960FB694
:10103000F894DEBF0FBECDBFDF91CF910C94D807DF
:1010400041E00E94D80781E090E008959F92AF921E
:10105000BF92CF92DF92EF92FF920F931F93CF93A5
:10106000DF935C017B018B01D0E0C0E0F80191903F
:101070008F016501CC0EDD1EC6010E94A51C9816CD
:1010800021F0692DC6010E94AD1C2196C631D10503
:1010900069F7C701DF91CF911F910F91FF90EF90FA
:1010A000DF90CF90BF90AF909F900895AF92BF9286
:1010B000CF92DF92EF92FF920F931F93CF93DF9324
:1010C000DC01CD90DC901197C114D10439F0149655
:1010D000CD91DC918C017601209761F4DF91CF9165
:1010E0001F910F91FF90EF90DF90CF90BF90AF9046
:1010F000089575015701BFEFAB1ABB0AF701808154
:10110000082E000C990B0E94891C892B91F72197BE
:10111000CC0DDD1D8881082E000C990B0E94891CC6
:10112000892B29F0CE15DF0510F02197F3CFAE0102
:101130004F5F5F4F4E195F09D80115965C934E9330
:101140001497CE14DF0420F4B701C6010E94511F8A
:10115000D801ED91FC91119714968D919C91E80F17
:10116000F91F1082BBCFCF93DF93FC01C081D181E7
:10117000209761F08991882349F0082E000C990B83
:101180000E94491FFE0131978083F4CFDF91CF91F8
:101190000895CF93DF93DC0114962D913C91159720
:1011A000232B79F0FB01CD91DC9160817181CE011F
:1011B0000E94AF1F009729F08C1B9D0BDF91CF91F0
:1011C00008958FEF9FEFFACFCF92DF92EF92FF92C9
:1011D0000F931F93CF93DF93EC016C0186E1C80E50
:1011E000D11C8E017B01EC1AFD0AC701800F911FF3
:1011F0000E94A51CF80181938F01EC15FD05A9F74C
:1012000088818F5F823028F469EC71E0CE010E9402
:10121000801FCE01DF91CF911F910F91FF90EF9032
:10122000DF90CF9008952F923F924F925F926F92EE
:101230007F928F929F92AF92BF92CF92DF92EF9266
:10124000FF920F931F93CF93DF9300D000D0CDB7C1
:10125000DEB7FC01448055804114510409F412C1E9
:10126000FB01648075806114710409F40BC17A017B
:101270006B019C838B83FA01A480B580A618B70804
:10128000FC0100811181A114B104B9F4F60160815F
:101290007181C8010E94AF1F8C01009709F4F2C050
:1012A000F70160817181448155810E94511FF701CE
:1012B00084819581080F191FE9CFB7FC10C0FB018D
:1012C000208031804201C801B1010E94AF1F009708
:1012D00009F44EC0860D971D8A0C9B1CF5CF380172
:1012E000F60160817181C8010E94AF1F2C01009737
:1012F00029F14C01801A910AA401B801C3010E948E
:10130000511F680C791CF7016081718144815581FE
:10131000C3010E94511FF70184809580680C791CDD
:10132000F60104811581040D151DEB81FC8184817A
:1013300095818A0D9B1D95838483D2CFB801C3010B
:101340000F900F900F900F90DF91CF911F910F9101
:10135000FF90EF90DF90CF90BF90AF909F908F90D5
:101360007F906F905F904F903F902F900C94801FD4
:101370004814590409F486C0EB81FC818281938171
:101380008815990578F4B4016F5F7F4FC8010E94FA
:101390008C1E009709F476C0EB81FC8191838083D9
:1013A00093828282EB81FC810481158101501109B5
:1013B00017FD68C03801F6012480358021143104FE
:1013C00009F460C0EB81FC818480958081149104D4
:1013D00009F458C08214930408F454C00815190580
:1013E00020F03401F1E06F1A7108EB81FC8140803C
:1013F0005180C2010FEF1FEF9201260D371D3A8376
:101400002983E981FA81E817F90788F0F6016081FC
:1014100071810E94AF1F009751F09C01241935097A
:101420006216730608F4980101968901EACF17FD48
:1014300029C0200E311EC201820D931DA401421944
:101440005309BC018A0D9B1D0E945A1FEB81FC8130
:10145000848195818A0D9B1D9583848320813181B0
:10146000820F931FFC011082EB81FC8180819181AE
:10147000F7016081718144815581800F911F0E9425
:10148000511F94CF0F900F900F900F90DF91CF913D
:101490001F910F91FF90EF90DF90CF90BF90AF9092
:1014A0009F908F907F906F905F904F903F902F9084
:1014B00008950F931F93CF93DF93EC018881998157
:1014C000009759F02A813B812617370730F081E0D9
:1014D000DF91CF911F910F9108958B016F5F7F4F27
:1014E0000E948C1E009759F0998388831B830A837E
:1014F0002C813D81232B59F7FC011082E8CF80E03D
:10150000E7CFEF92FF920F931F93CF93DF93611575
:10151000710541F480E0DF91CF911F910F91FF9011
:10152000EF90089541155105B1F07B01EC010C815C
:101530001D81040F151FB8010E94590A882351F319
:10154000288139818C819D81B701820F931F0E9470
:10155000801F1D830C8381E0DECFFB014481558118
:10156000FC01248135812417350778F08081918131
:10157000009759F0FB01608171816115710529F0B7
:101580000E94871F21E0892B09F020E0822F089517
:10159000FC0124813581232B39F421E0FB0180817A
:1015A000882349F020E007C0808191810E94771F45
:1015B00021E0892BB9F7822F0895CF93DF93EC01B7
:1015C000A881B981EB01E881F9811097F1F030979A
:1015D000B1F4EC018C819D81892BC9F08C9190E054
:1015E0000BC0DB0114968D919C91892B81F0808139
:1015F00090E0919581959109DF91CF910895BF0178
:10160000CD01DF91CF910C94771F309751F790E087
:1016100080E0F2CF0F931F93CF93DF938C01EB0108
:10162000FC01808191810097E1F0688179816115E9
:101630007105A9F0428153812C813D8142175307E6
:1016400070F00E94801F8C819D81F80195838483B6
:101650001D821C82DF91CF911F910F9108950E94EE
:10166000031E88819981F801918380838A819B81FF
:10167000938382838C819D819583848319821882D0
:101680001B821A82E5CFCF93DF93EC018881998189
:10169000009711F00E94031E198218821D821C827D
:1016A0001B821A82DF91CF910895CF93DF93EC01D3
:1016B000FB0144815581608171810E94810A811101
:1016C00003C0CE010E94430BCE01DF91CF9108955C
:1016D000EF92FF920F931F93CF93DF93EC017B0167
:1016E0008A01BA010E94590A81110BC0CE010E94E1
:1016F000430BCE01DF91CF911F910F91FF90EF909F
:1017000008951D830C83B701888199810E94801FF1
:10171000F0CFFB0101900020E9F73197AF01461BA4
:10172000570B0C94680B0F931F93CF93DF93CDB798
:10173000DEB729970FB6F894DEBF0FBECDBF8C0180
:10174000862FF80111821082138212821582148270
:1017500040E1BE016F5F7F4F90E00E946F1CBE01B1
:101760006F5F7F4FC8010E94890B29960FB6F894CE
:10177000DEBF0FBECDBFDF91CF911F910F910895B6
:10178000CF93DF93EC01FB018617970749F0608147
:1017900071816115710541F0448155810E94680B8A
:1017A000CE01DF91CF9108950E94430BF9CFFC0148
:1017B0001182108213821282158214820C94C00B43
:1017C000FC01118210821382128215821482FB01A5
:1017D00001900020E9F73197AF01461B570B0C949D
:1017E000680BEF92FF920F931F93CF93DF9300D07C
:1017F000CDB7DEB78C017B0168EC71E00E94E00B95
:10180000C7010E94480397FD0EC08A30910559F028
:1018100089831A8241E050E0BE016F5F7F4FC801AB
:101820000E94810AEDCFC8010F900F90DF91CF91F8
:101830001F910F91FF90EF900895FC01808191819D
:10184000009711F00C94031E0895AF92BF92CF92AF
:10185000DF92EF92FF920F931F93CF93DF93CDB759
:10186000DEB768970FB6F894DEBF0FBECDBF5C0140
:101870006B017A016FEC71E0CE0101960E94E00BE2
:10188000B501CE0101960E94550BBC01CE010D960B
:101890000E94D70BCE0101960E941D0C66ED71E0EF
:1018A000CE0101960E94E00BB601CE0101960E9486
:1018B000550B8C0145E050E069ED71E00E94810A12
:1018C000811103C0C8010E94430BB701C8010E94E7
:1018D000550BBC01CE0143960E94D70BCE01019659
:1018E0000E941D0C89899A89409748F441E050E094
:1018F00061EF71E0CE010D960E94810AF3CF8F89CE
:10190000988D409748F441E050E061EF71E0CE01DE
:1019100043960E94810AF3CF80E00E94EF07BE0148
:10192000635F7F4F8EE095E00E94760381E00E9426
:10193000EF07BE016D5E7F4F8EE095E00E9476035B
:1019400088E690E00E94A8076FEC71E0CE01019656
:101950000E94E00BB501CE0101960E94550BBC011F
:10196000CE0107960E94D70BCE0107960E948207F0
:10197000CE0107960E941D0CCE0101960E941D0CFF
:101980006FED71E0CE0101960E94E00BB601CE0131
:1019900001960E94550BBC01CE0107960E94D70B01
:1019A000CE0107960E948207CE0107960E941D0C69
:1019B000CE0101960E941D0C6CEE71E0CE010196E5
:1019C0000E94E00BB701CE0101960E94550BBC01AD
:1019D000CE0107960E94D70BCE0107960E94820780
:1019E000CE0107960E941D0CCE0101960E941D0C8F
:1019F000CE0143960E941D0CCE010D960E941D0C37
:101A000068960FB6F894DEBF0FBECDBFDF91CF91C1
:101A10001F910F91FF90EF90DF90CF90BF90AF900C
:101A20000895EF92FF920F931F93CF93DF93CDB75B
:101A3000DEB7AE970FB6F894DEBF0FBECDBF8C01F8
:101A4000BC01CE0101960E94E40869EC71E0CE0170
:101A500001960E94771FE0900001F0900101892B10
:101A6000E1F50E151F0561F167EF71E0CE01839678
:101A70000E94E00B63EF71E0CE014D960E94E00BF7
:101A800069EC71E0CE0147960E94E00BAE014D5D1E
:101A90005F4FBE01635E7F4FCE0147960E94250CCB
:101AA000CE0147960E941D0CCE014D960E941D0C42
:101AB000CE0183960E941D0C10930101009300013A
:101AC000AE960FB6F894DEBF0FBECDBFDF91CF91BB
:101AD0001F910F91FF90EF900895698982E00E9415
:101AE00078026A8984E00E9478026B8983E00E9410
:101AF00078026C8985E00E9478026D8986E00E94F8
:101B00007802688989E00E9478020E151F05C1F2EB
:101B100068EC71E0CE0147960E94E00B29898A8922
:101B2000422F480F5527551F2B89240F352F311D64
:101B30008C89280F311D8D89820F932F911D63EFA2
:101B400071E0009731F062EB72E0059711F064E00C
:101B500072E0CE0147960E94890BBE01695E7F4FFD
:101B6000CE0189960E94D70B888962EB72E08130A2
:101B700011F063EF71E0CE0183960E94E00BBE018D
:101B80006F5F7F4FCE014D960E94E00BAE01475D27
:101B90005F4FBE016D5D7F4FCE014D960E94250CBB
:101BA000CE014D960E941D0CCE0183960E941D0C05
:101BB000CE0189960E941D0C109301010093000133
:101BC000CE0147960E941D0C7BCF85ED8093BC0013
:101BD0008091030490910404A0910504B09106043F
:101BE0000796A11DB11D23E0B695A79597958795FA
:101BF0002A95D1F72091BC0024FD03C01092010466
:101C0000089540910304509104046091050470917B
:101C10000604452B462B472B69F30097A105B10518
:101C200041F02AE22A95F1F700C00197A109B10914
:101C3000E1CF809102040C94A6051F920F920FB67B
:101C40000F9211242F933F938F939F93AF93BF9342
:101C50008091D3039091D403A091D503B091D60382
:101C60003091D20323E0230F2D3758F50196A11DA3
:101C7000B11D2093D2038093D3039093D403A093F8
:101C8000D503B093D6038091D7039091D803A09148
:101C9000D903B091DA030196A11DB11D8093D7033A
:101CA0009093D803A093D903B093DA03BF91AF9177
:101CB0009F918F913F912F910F900FBE0F901F908A
:101CC000189526E8230F0296A11DB11DD2CF1F92B1
:101CD0000F920FB60F9211242F933F934F935F9360
:101CE0006F937F938F939F93AF93BF93EF93FF93E4
:101CF0008BE294E00E942604FF91EF91BF91AF9197
:101D00009F918F917F916F915F914F913F912F9113
:101D10000F900FBE0F901F9018951F920F920FB645
:101D20000F9211242F938F939F93EF93FF93E09142
:101D30003B04F0913C048081E0914104F091420425
:101D400082FD1BC09081809144048F5F8F7320912E
:101D50004504821741F0E0914404F0E0E55DFB4F5B
:101D6000958F80934404FF91EF919F918F912F91D4
:101D70000F900FBE0F901F9018958081F4CF1F9287
:101D80000F920FB60F9211242F933F934F935F93AF
:101D90006F937F938F939F93AF93BF93EF93FF9333
:101DA000E091B903F091BA03309749F0A685B78561
:101DB0008585968D91FF14C09C918923A1F4FF9194
:101DC000EF91BF91AF919F918F917F916F915F91B3
:101DD0004F913F912F910F900FBE0F901F9018952C
:101DE0009C91892361F7A389B4899C918589809509
:101DF00089238C93868997890197F1F7608D718D7E
:101E0000A685B785558538E020E0CB010197F1F72D
:101E1000822F90E095958795282F4C91452309F0C6
:101E20002068315091F7868D81FD20958091B8030F
:101E300090E001968F7399273091B703381799F086
:101E4000A091B803B0E0A958BC4F2C938093B8037D
:101E5000828D938D0197F1F7A389B4898C9195892F
:101E6000892B8C93ACCF868D8160868FF1CF1F92AA
:101E70000F920FB60F9211242F933F934F935F93BE
:101E80006F937F938F939F93AF93BF93EF93FF9342
:101E90008091B900887F803609F44AC0F0F5883215
:101EA00009F4A7C018F5803109F49BC0B8F4882361
:101EB00009F4F9C0883009F494C0FF91EF91BF9103
:101EC000AF919F918F917F916F915F914F913F91D2
:101ED0002F910F900FBE0F901F901895883109F425
:101EE00088C0803251F78093FF0314C0803409F416
:101EF0009DC040F48033B9F38833F9F68093FF0333
:101F000085ECB0C0803509F485C0883509F496C0E9
:101F1000883499F60E94E50DD0CF883909F48CC039
:101F200038F5883729F050F4883611F0803729F6D3
:101F300083E0809301041092760357C0883809F437
:101F40007BC0803919F0803809F0B7CF80917603D3
:101F5000803208F071C0E091760381E08E0F8093AB
:101F600076038091BB00F0E0EA5AFC4F80833DC0CD
:101F7000803B39F0E0F4803A09F479C0883A09F0FE
:101F80009CCF84E080930104109255031092540377
:101F9000E091BD03F091BE03099580915403811136
:101FA0000FC081E0809354031092340309C0803C39
:101FB00009F4A6CF883C09F4A3CF883B09F07DCF74
:101FC000E091550381E08E0F80935503F0E0EC5CC7
:101FD000FC4F80818093BB00909155038091540306
:101FE00029C08091DC038093BB0085EC8093BC000A
:101FF00064CF9091FE038091FD03981758F5E0910E
:10200000FE0381E08E0F8093FE03F0E0E352FC4F6D
:102010008081E9CFE091FE0381E08E0F8093FE0383
:102020008091BB00F0E0E352FC4F80839091FE036F
:102030008091FD039817C8F285E8D8CFE091FE03A0
:1020400081E08E0F8093FE038091BB00F0E0E352AD
:10205000FC4F80838091000481115CCF81E08093EC
:10206000DB0384EA8093BC001092010426CF85EC48
:102070008093BC001092010480917603803230F48A
:10208000E0917603F0E0EA5AFC4F1082609176030B
:1020900070E0E091BB03F091BC0386E593E0099505
:1020A000109276030ACF1092FF0334CF1F920F9243
:1020B0000FB60F9211242F933F934F935F936F931B
:1020C0007F938F939F93AF93BF93CF93DF93EF93C0
:1020D000FF9380911203C091F804D0E087FF24C0E1
:1020E0001092850010928400809112038F5F80937C
:1020F000120380911203082E000C990B8C179D0778
:1021000024F4809112038C30C4F18091840090916A
:102110008500049680349C4908F47AC0809184003C
:1021200090918500049676C080911203082E000CD1
:10213000990B8C179D07C4F6E09112038E2FEE0FBA
:10214000990BFC01EE0FFF1FE80FF91FEC52FB4F3C
:10215000808186FFC9CFE09112038E2FEE0F990B7D
:10216000FC01EE0FFF1FE80FF91FEC52FB4F8081BF
:1021700060E08F730E947802B7CF20918400309185
:102180008500E09112038E2FEE0F990BFC01EE0FEC
:10219000FF1FE80FF91FEC52FB4F81819281820FE4
:1021A000931F9093890080938800E09112038E2FF3
:1021B000EE0F990BFC01EE0FFF1FE80FF91FEC5219
:1021C000FB4F808186FF11C0E09112038E2FEE0F2E
:1021D000990BFC01EE0FFF1FE80FF91FEC52FB4FAC
:1021E000808161E08F730E947802FF91EF91DF910F
:1021F000CF91BF91AF919F918F917F916F915F919F
:102200004F913F912F910F900FBE0F901F901895F7
:1022100080E49CE990938900809388008FEF8093FD
:102220001203E3CF10922E0410922D0488EE93E057
:10223000A0E0B0E080932F0490933004A093310489
:10224000B093320428E831E030932C0420932B041F
:1022500025EC30E0309338042093370424EC30E050
:1022600030933A042093390420EC30E030933C045E
:1022700020933B0421EC30E030933E0420933D0456
:1022800022EC30E03093400420933F0426EC30E011
:102290003093420420934104109244041092450468
:1022A00010924604109247041092CB041092CA0474
:1022B0008093CC049093CD04A093CE04B093CF042C
:1022C0002AE931E03093C9042093C80410921E0516
:1022D00010921D0580931F0590932005A093210562
:1022E000B093220588EB91E090931C0580931B0529
:1022F0001092320510923105109234051092330578
:102300001092360510923505109238051092370557
:10231000609139056E7F6D7F6093390566956170B8
:1023200081E068278BE00E94780261E08BE00E94E8
:10233000A602ECE5F3E0E491E0932B05E8E4F3E09A
:10234000E491F0E0EE0FFF1FED5CFC4F859194915E
:1023500090932D0580932C0560E08AE00E94A602F0
:102360008091390581FD04C061E08AE00E94780215
:102370008AE080932705EBE5F3E0E491E0932805FC
:10238000E7E4F3E0E491F0E0EE0FFF1FE75DFC4FC0
:102390008591949190932A058093290510921105B7
:1023A000109210058CEA91E090930F0580930E0532
:1023B0001092170587E28093120580E1809318053B
:1023C00082E08093190510921A058091F8048C30F0
:1023D00020F591E0980F9093F80480930B0590E01E
:1023E000FC01EE0FFF1FE80FF91FEC52FB4F88EBCB
:1023F0009BE09283818368EC71E085E095E00E9428
:10240000E00B68EC71E08FEF94E00E94E00B68EC69
:1024100071E089EF94E00C94E00B8FEF80930B0553
:10242000EACFCF93DF93CDB7DEB7CE56D1090FB643
:10243000F894DEBF0FBECDBF789484B5826084BDB2
:1024400084B5816084BD85B5826085BD85B58160B8
:1024500085BD80916E00816080936E001092810036
:1024600080918100826080938100809181008160F1
:1024700080938100809180008160809380008091B2
:10248000B10084608093B1008091B000816080933E
:10249000B00080917A00846080937A0080917A0005
:1024A000826080937A0080917A00816080937A00C4
:1024B00080917A00806880937A001092C10061E078
:1024C0008EE00E94A60261E08FE00E94A60261E019
:1024D00080E10E94A60261E08EE00E94780260E046
:1024E0008FE00E94780260E080E10E947802E09133
:1024F0003B04F0913C0482E08083E0913704F0914A
:1025000038041082E0913904F0913A048FEC808312
:1025100010924304E0913F04F091400486E08083F0
:10252000E0913D04F0913E04808180618083E091E0
:102530003D04F0913E04808188608083E0913D04F9
:10254000F0913E04808180688083E0913D04F091A9
:102550003E0480818F7D8083109236051092350570
:102560001092340510923305109232051092310505
:102570008DE991E090933805809337059091270578
:10258000963108F047C02DEB30E0309332052093B0
:1025900031052BE931E030933405209333052CE2EB
:1025A00031E030933605209335052091680084E0B2
:1025B000983048F031E09E3008F430E081E001C00E
:1025C000880F3A95EAF7822B809368002DE630E079
:1025D000983050F02BE630E09E3030F02CE630E0C2
:1025E000963110F030E020E030932F0520932E0537
:1025F000292F30E0983008F050C281E001C0880FE8
:102600009A95EAF7809330058091370590913805C7
:102610000197F1F78091350590913605892B49F1A5
:10262000E091B903F091BA0325E0EB31F20709F12B
:10263000309739F0A389B4899C9185898095892345
:102640008C93809139058E7F809339051092B80361
:102650001092B7038BE195E09093BA038093B9038E
:10266000E0912E05F0912F05808190913005892B06
:1026700080838CE092E00E94A8071092C003109221
:10268000BF031092080410922A040E94880585E472
:1026900093E09093BE038093BD0386E493E0909310
:1026A000BC038093BB0386EF91E00E94A80700E083
:1026B00011E0FF24F394F092070410932904109280
:1026C000080410922A040E94C7058111F3C186EC08
:1026D00091E00E949907103120F484EC91E00E946F
:1026E0009907612FCE0147960E94930BCE01479622
:1026F0000E94B308BE01695E7F4FCE0101960E9421
:10270000D70BCE0101960E948207CE0101960E944E
:102710001D0CCE0147960E941D0C01E01F5F1F3764
:1027200051F686E891E00E94A80788E591E00E94B2
:10273000A807002309F4E8C187E391E00E94A807F5
:102740001092C0031092BF031092080410922A0442
:102750000E94880585E493E09093BE038093BD03B7
:1027600086E493E09093BC038093BB03109213051F
:1027700080911905823018F098E0909313058093AA
:10278000160562E370E080E090E00E94070360912C
:102790001A058EE095E00E94330768EE73E080E052
:1027A00090E00E94070360E38EE095E00E94BF077F
:1027B0000BE416E4C8010197F1F760E38EE095E0C1
:1027C0000E94BF07C8010197F1F760E38EE095E032
:1027D0000E94BF0783E592E00197F1F760E28EE087
:1027E00095E00E94BF0760911305606240E08EE0B3
:1027F00095E00E94D80784E08093140540E06CE0E7
:102800008EE095E00E94D80740E061E08EE095E020
:102810000E94D8078BE39FE10197F1F7809117059C
:10282000882319F080E00E94EF0782E0809315056D
:1028300040E066E08EE095E00E94D80740E062E06C
:102840008EE095E00E94D8078BE39FE10197F1F7B6
:1028500088E080931A0560E08EE095E00E943307DF
:102860008CE091E00E94A80763EF71E0CE01019631
:102870000E94E00B63EF71E0CE0147960E94E00BEF
:102880006BE072E0CE018D960E94E00BAE014F5FCF
:102890005F4FBE01695E7F4FCE018D960E94250C71
:1028A000CE018D960E941D0CCE0147960E941D0CF4
:1028B000CE0101960E941D0C8DE790E00E94A807B2
:1028C00061E082E00E94A60261E084E00E94A6022C
:1028D00061E083E00E94A60261E085E00E94A6021A
:1028E00061E086E00E94A60261E089E00E94A60203
:1028F00062E087E00E94A60280910B058C3008F010
:1029000043C061E088E00E94A60280910B05282F59
:1029100030E0F901EE0FFF1FE20FF31FEC52FB4F07
:102920009081907C9860908310920C0510920D0518
:102930002CE0622F0E94551D90E0829FB00111246F
:1029400030E020E0AB01420F531FFA01EE0FFF1FF2
:10295000E40FF51FEC52FB4F408146FD07C02F5F8F
:102960003F4F2C30310571F70E944907E0910B056C
:102970008E2F90E0FC01EE0FFF1FE80FF91FEC52C5
:10298000FB4F80818064808360E082E00E94780257
:1029900060E084E00E94780260E083E00E947802B8
:1029A00060E085E00E94780260E086E00E947802A4
:1029B00060E089E00E94780290E080E00E94EA01F5
:1029C0001092C7038FEF90E00E94A51C8B3709F08F
:1029D000A4C080E592E00E94A8070E94390386E621
:1029E00092E00E94A807B2E0EB2EF12C01E010E08B
:1029F00076E0672E712CE5E0CE2ED12CF4E0AF2EE0
:102A0000B12CA3E08A2E912C8BE195E00E942A053F
:102A1000181619060CF070C16BE175E0CE018D5BE4
:102A20009F4F0E94F10B68EC71E0CE0101960E946D
:102A3000E00B67E172E0CE0147960E94E00BAE0129
:102A40004F5F5F4FBE01695E7F4FCE018D5B9F4F31
:102A50000E941309CE0147960E941D0CCE010196DB
:102A60000E941D0CCE018D5B9F4F0E94560869E1AC
:102A700072E0CE018D5B9F4F0E94C80A882309F443
:102A8000A6C010920701109206010E946307CE01B2
:102A90008D5B9F4F0E941D0CB7CF9E3040F4285095
:102AA000310981E001C0880F2A95EAF7ABCD2E509D
:102AB0003109F7CF843009F031CE8CE991E00E94E2
:102AC0009907103120F48AE991E00E949907612F5B
:102AD000CE0147960E94930BCE0147960E94B30801
:102AE000BE01695E7F4FCE0101960E94D70BCE01D9
:102AF00001960E948207CE0101960E941D0CCE0114
:102B000047960E941D0C0ACE8EED90E00E94A80709
:102B10008BEA90E00E94A807CFCE86E1E6E1F1E0E3
:102B2000DE01A75ABF4F01900D928A95E1F786E129
:102B3000ECE2F1E0DE01AD5BBF4F01900D928A95B2
:102B4000E1F786E1E2E4F1E0DE019D9601900D926D
:102B50008A95E1F786E1E8E5F1E0DE01579601901C
:102B60000D928A95E1F786E1EEE6F1E0DE0111963D
:102B700001900D928A95E1F7BE01675A7F4F90E070
:102B800080E00E942608BE016D5B7F4F8EE190E0E1
:102B90000E942608BE01635D7F4F8CE390E00E9497
:102BA0002608BE01695E7F4F8AE590E00E942608F4
:102BB000BE016F5F7F4F88E790E00E9426086BE7B9
:102BC0008FEF90E00E94AD1C8CE392E004CF65E2B1
:102BD00072E0CE018D5B9F4F0E94C80A882329F0C6
:102BE000109307010093060150CF63E372E0CE011A
:102BF0008D5B9F4F0E94C80A882329F0F09207013D
:102C0000E092060142CF6EE372E0CE018D5B9F4FF2
:102C10000E94C80A882329F0909207018092060139
:102C200034CF6CE472E0CE018D5B9F4F0E94C80AE6
:102C3000882329F0B0920701A092060126CF66E909
:102C400070E0CE0147960E94E40864EB70E0CE018C
:102C500001960E94E408BE01695E7F4FCE018D9609
:102C60000E94E00B29962EAD3FAD299789A99AA91C
:102C70002817390761F4BE01635D7F4FCE018D5B7C
:102C80009F4F0E94DD0A55245394892B09F0512C43
:102C9000CE018D960E941D0C552029F0D09207017F
:102CA000C0920601F2CEBE016F5F7F4FCE018D96BE
:102CB0000E94E00B29962EAD3FAD299789A99AA9CC
:102CC0002817390769F4BE01635D7F4FCE018D5B24
:102CD0009F4F0E94DD0A55245394892B09F0512CF3
:102CE000CE018D960E941D0C552009F4D0CE709215
:102CF000070160920601C9CE8BE294E00E940604AF
:102D0000181619060CF037C46BE274E0CE018D5B27
:102D10009F4F0E94F10B68EC71E0CE0101960E947A
:102D2000E00B67E172E0CE0147960E94E00BAE0136
:102D30004F5F5F4FBE01695E7F4FCE018D5B9F4F3E
:102D40000E941309CE0147960E941D0CCE010196E8
:102D50000E941D0CCE018D5B9F4F0E94560883ED93
:102D600092E00E949907BE016D5B7F4FCE010196F4
:102D70000E94D70BCE0101960E948207CE010196D8
:102D80000E941D0C68E572E0CE0101960E94E00BE6
:102D9000BE016F5F7F4FCE018D5B9F4F0E94C908C0
:102DA0006C01CE0101960E941D0C3FEFC316D306A5
:102DB000E1F168EC71E0CE0101960E94E00B2996EA
:102DC0008EAD9FAD29970097F9F08C159D0508F4FD
:102DD0006C012596EEADFFAD2597EC0DFD1DB08085
:102DE000108225966EAD7FAD2597CE0101966115B7
:102DF000710539F10E94890B25968EAD9FAD2597FF
:102E0000C80ED91EF601B082BE016F5F7F4FCE01A2
:102E10008D5B9F4F0E940A0BCE0101960E941D0CF4
:102E2000CE018D5B9F4F0E94560829968EAD9FADB7
:102E30002997892B49F4CE018D5B9F4F0E941D0C71
:102E40005BCF0E94430BD8CF8091C5039091C603FE
:102E50008130910509F498C108F463C1029759F7CC
:102E60006DE872E0CE0101960E94E00BBE016F5F3B
:102E70007F4FCE018D5B9F4F0E94AD0AB82ECE01D1
:102E800001960E941D0CC090C103D090C203BB20CC
:102E900009F4A5C262EB72E0CE0101960E94E00B3C
:102EA000BE016F5F7F4FCE018D5B9F4F0E94C908AF
:102EB00021E0019609F420E02093C403CE0101969D
:102EC0000E941D0C2FEFC21AD20AD092C203C092E8
:102ED000C1038091C1039091C20302970CF4ABCF60
:102EE0006DEA72E0CE0101960E94E00BBE016F5FB9
:102EF0007F4F89EF94E00E94C908552453940196AE
:102F000009F4512CCE0101960E941D0C65EB72E074
:102F1000CE0101960E94E00BBE016F5F7F4F89EFEB
:102F200094E00E94C90866246394019609F4612C18
:102F3000CE0101960E941D0C60EC72E0CE0101965C
:102F40000E94E00BBE016F5F7F4F89EF94E00E940B
:102F5000C90877247394019609F4712CCE01019667
:102F60000E941D0C6AEC72E0CE0101960E94E00BFB
:102F7000BE016F5F7F4F89EF94E00E94C9089924DA
:102F800093940196B1F463ED72E0CE0147960E94EE
:102F9000E00BBE01695E7F4F89EF94E00E94C90893
:102FA00099249394019609F4912CCE0147960E949E
:102FB0001D0CCE0101960E941D0C6BED72E0CE013E
:102FC00001960E94E00BBE016F5F7F4F89EF94E096
:102FD0000E94C90888248394019609F4812CCE01AB
:102FE00001960E941D0C68EC71E08FEF94E00E9446
:102FF000C80A811145C269E172E08FEF94E00E9436
:10300000C80A81112CC065E272E08FEF94E00E9443
:10301000C80A5EE1A52EB12C811123C063E372E0E2
:103020008FEF94E00E94C80A4CE3A42EB12C8111CA
:1030300018C06EE372E08FEF94E00E94C80A3AE590
:10304000A32EB12C81110DC06CE472E08FEF94E0DF
:103050000E94C80A68E7A62EB12C811102C0B12CCB
:10306000A12CC0900305D0900405C114D10409F02F
:10307000EFC11F8AD090C303C090C4034EE050E05C
:10308000BE01695E7F4FCE0101960E94951F1F868B
:10309000C88A598A6A8A7B8A9C8A8D8ADE8ABE019E
:1030A0006F5F7F4FC5010E94260869EE72E0CE0176
:1030B0008D960E94E00B6FEF74E0CE018D960E941A
:1030C000550BBC01CE0101960E94D70BCE01019693
:1030D0000E948207CE0101960E941D0CCE018D96A2
:1030E0000E941D0C68EC71E08FEF94E00E94890B48
:1030F00068EC71E085E095E00E94890B68EC71E076
:1031000089EF94E00E94890B1092C4031092C203CD
:103110001092C1031092C3031093C6030093C5031A
:103120008ACE6BE572E0CE018D5B9F4F0E94C80A8C
:10313000882309F480CE1093C6030093C50310932F
:1031400003010093020168EC71E08FEF94E00E94AC
:10315000890B68EC71E085E095E00E94890B68ECD2
:1031600071E089EF94E00E94890B1092C4031092E1
:10317000C3031092C2031092C1030E945B078FEB3E
:1031800092E00E94A80757CE64E672E0CE018D5B04
:103190009F4F0E94C80A882399F11092C60310928B
:1031A000C50388EA92E00E94A8070E9463076DE6C3
:1031B00072E0CE0101960E94E00B66E772E0CE015C
:1031C00047960E94E00B69E772E0CE018D960E945F
:1031D000E00BAE014F5F5F4FBE01695E7F4FCE01D6
:1031E0008D960E94250CCE018D960E941D0CCE015D
:1031F00047960E941D0CCE0101960E941D0C1BCE0D
:1032000069E172E0CE018D5B9F4F0E94C80A811177
:1032100024C065E272E0CE018D5B9F4F0E94C80A18
:1032200081111BC063E372E0CE018D5B9F4F0E9452
:10323000C80A811112C06EE372E0CE018D5B9F4F10
:103240000E94C80A811109C06CE472E0CE018D5B56
:103250009F4F0E94C80A8823D1F0BE016D5B7F4F4B
:103260008FEF94E00E94C00B1092C40368EC71E0F1
:1032700089EF94E00E94890B1092C2031092C1035F
:103280001092C303F092C603E092C503D4CD60E868
:1032900072E0CE0101960E94E00BBE016F5F7F4F8E
:1032A000CE018D5B9F4F0E94AD0AD82ECE010196B4
:1032B0000E941D0CDD2009F4BECD29968EAC9FAC7A
:1032C00029978114910441F12596AEACBFAC2597A6
:1032D00062E270E0C5010E946C1F6C01CA18DB0835
:1032E000892B19F4CC24CA94DC2C2596EEADFFADC5
:1032F0002597E80DF91D708010822596AEACBFAC05
:10330000259762E270E0C5010E94A41FA80CB91CB9
:10331000F5017082009769F460E08EE00E94780207
:1033200061E080E10E9478021092C6031092C5030A
:1033300082CDFFEFCF16DF0679F325962EAD3FAD98
:103340002597821B930B8F3F980731F3C816D90638
:103350001CF75C013FEFC31AD30A8C159D0510F0D2
:1033600056016C0168EC71E0CE0101960E94E00B01
:1033700029968EAC9FAC2997A814B90408F5C814F7
:10338000D90408F446012596EEADFFAD2597E80D6A
:10339000F91DD080108225966EAD7FAD25976A0D00
:1033A0007B1DCE01019661157105B1F00E94890B5C
:1033B00025968EAD9FAD2597880E991EF401D0827B
:1033C000BE016F5F7F4F85E095E00E940A0BCE0142
:1033D00001960E941D0C48CF0E94430BE9CF69E97A
:1033E00072E0CE0101960E94E00BBE016F5F7F4F3D
:1033F000CE018D5B9F4F0E94AD0AB82ECE01019683
:103400000E941D0CBB2009F464CDBE016D5B7F4F93
:1034100089EF94E00E94C00B60EA72E0CE01019651
:103420000E94E00BBE016F5F7F4FCE018D5B9F4F0F
:103430000E94C90821E0019609F420E02093C3030B
:10344000CE0101960E941D0C4FEFC41AD40A3DCD47
:103450005EE0C516D10418F02EE0C22ED12C60918A
:10346000FF0470910005A601CE0147960E94951FAA
:10347000E7E1F0E0EC0FFD1FEC0DFD1D1082FACD31
:10348000C0900905D0900A05C114D10409F048C0C4
:103490001F8AD090C40380910201909103014EE0F5
:1034A00050E0BE01695E7F4F019709F051C0CE0127
:1034B00001960E94951F1F86D88A598A6A8A7B8A3C
:1034C0009C8A8D8ABE016F5F7F4F86E990E00E94E3
:1034D00026088091020190910301019690930301C7
:1034E0008093020164EF72E0CE018D960E94E00BA2
:1034F00065E075E0CE018D960E94550BBC01CE01B2
:1035000001960E94D70BCE0101960E948207CE0140
:1035100001960E941D0CCE018D960E941D0CE8CDD7
:103520008EE0C816D10418F09EE0C92ED12C60910F
:10353000050570910605A601CE0147960E94951FCC
:10354000E7E1F0E0EC0FFD1FEC0DFD1D1082A1CFB7
:10355000CE0101960E94951F1F86D88A598A6A8AD1
:103560007B8A9C8A8D8ABE016F5F7F4F84EB90E0DF
:103570000E942608B7CF0E943903ECE1F3E0849162
:10358000E8E5F3E0C490E4E4F3E0D490D110ADC0FA
:103590008091040190910501019709F08DC00E946E
:1035A00039038090C8039090C903A090CA03B090DB
:1035B000CB03681979098A099B0963337105810571
:1035C000910508F479C08091C70391E08927809321
:1035D000C70386EE92E00E94A80780910B058C300D
:1035E00008F043C061E088E00E94A60280910B05CC
:1035F000282F30E0F901EE0FFF1FE20FF31FEC520E
:10360000FB4F9081907C9860908310920C051092F3
:103610000D052CE0622F0E94551D829FB0011124E0
:1036200030E020E0AB01420F531FFA01EE0FFF1F05
:10363000E40FF51FEC52FB4F908196FD08C02F5F01
:103640003F4F2C30310571F790E00E944907E0911F
:103650000B058E2F90E0FC01EE0FFF1FE80FF91F06
:10366000EC52FB4F8081806480838091C703882364
:1036700009F44DC08AE590E00E94EA0166E970E035
:1036800080E090E00E940703E0910B058E2F90E010
:10369000FC01EE0FFF1FE80FF91FEC52FB4F80817A
:1036A0008F7B80830E9439036093C8037093C903A2
:1036B0008093CA039093CB0390E080E09093050140
:1036C00080930401E0910601F0910701E730F105D4
:1036D00008F0A0C0E259F44E0C94611D8A1B291C0D
:1036E0002E1C331C381C3D1C421C81110E944F02B1
:1036F000ED2DF0E0EE0FFF1FE75DFC4FA591B491BB
:10370000EC91CE2209F444CF81E090E0D7CF90E055
:1037100080E0B2CF70E060E0CE0101960E94E40844
:10372000688989E00E9478028E89811105C090E045
:1037300080E00E94110D6EC08091D10381112EC0D6
:1037400066E073E0CE0147960E94E00B62EB72E008
:10375000CE018D960E94E00B6EE172E0CE018D5B92
:103760009F4F0E94E00BAE01495E5F4FBE01635D5B
:103770007F4FCE018D5B9F4F0E94250CCE018D5B4C
:103780009F4F0E941D0CCE018D960E941D0CCE01F4
:1037900047960E941D0C81E08093D1030E9439035B
:1037A0008090CD039090CE03A090CF03B090D00333
:1037B0009B01AC01281939094A095B0949015A01E1
:1037C00034E683169104A104B10420F16093CD0383
:1037D0007093CE038093CF039093D0038091CC035A
:1037E00091E089278093CC03882309F161E082E08E
:1037F0000E94780261E083E00E94780261E086E046
:103800000E94780260E084E00E94780260E085E037
:103810000E94780280E090E0892B09F4E9C80E94B8
:103820001204882309F4DFC80E940000DCC860E0AD
:1038300082E00E94780260E083E00E94780260E00B
:1038400086E00E94780261E084E00E94780261E0F4
:10385000DECF1092D1038EE190E06BCF1092D103B6
:103860008CE390E066CF1092D1038AE590E061CFBF
:103870001092D10388E790E05CCF1092D10386E9E3
:1038800090E057CF1092D10384EB90E052CF89EFB4
:1038900094E00E941D0C8FEF94E00E941D0C85E0C7
:1038A00095E00E941D0C88EB91E090931C0580939D
:1038B0001B058091B9039091BA038B51954071F427
:1038C000E0912E05F0912F05908180913005809533
:1038D000892380831092BA031092B9030895BB27FD
:1038E000FB015527AA27880F991FAA1FA41710F0BC
:1038F000A41B83955051B9F7A05DAA3308F0A95DC8
:10390000A193009779F7B111B1931192CB010C9467
:10391000921C91110C94A21C803219F08950855090
:10392000C8F70895DC01FC01672F71917723E1F757
:10393000329704C07C916D9370836291AE17BF077C
:10394000C8F30895992788270895F999FECF92BD65
:1039500081BDF89A992780B50895262FF999FECF51
:103960001FBA92BD81BD20BD0FB6F894FA9AF99A9C
:103970000FBE01960895052E97FB1EF400940E9439
:10398000D21C57FD07D00E94241D07FC03D04EF423
:103990000C94D21C50954095309521953F4F4F4F38
:1039A0005F4F089590958095709561957F4F8F4FEB
:1039B0009F4F08950E94461DA59F900DB49F900DA6
:1039C000A49F800D911D11240895B7FF0C94DA1C5B
:1039D0000E94DA1C821B930B08952F923F924F9204
:1039E0005F926F927F928F929F92AF92BF92CF928F
:1039F000DF92EF92FF920F931F93CF93DF93CDB798
:103A0000DEB7CA1BDB0B0FB6F894DEBF0FBECDBF0F
:103A100009942A88398848885F846E847D848C84E0
:103A20009B84AA84B984C884DF80EE80FD800C81E9
:103A30001B81AA81B981CE0FD11D0FB6F894DEBFCC
:103A40000FBECDBFED010895A1E21A2EAA1BBB1B2C
:103A5000FD010DC0AA1FBB1FEE1FFF1FA217B3075A
:103A6000E407F50720F0A21BB30BE40BF50B661F70
:103A7000771F881F991F1A9469F760957095809534
:103A800090959B01AC01BD01CF010895A29FB001AB
:103A9000B39FC001A39F700D811D1124911DB29F82
:103AA000700D811D1124911D0895991B79E004C0AA
:103AB000991F961708F0961B881F7A95C9F780956D
:103AC0000895EE0FFF1F0590F491E02D09940F93D8
:103AD0001F93CF93DF938230910510F482E090E042
:103AE000E0913C05F0913D0530E020E0B0E0A0E041
:103AF000309799F42115310509F44AC0281B390B78
:103B000024303105D8F58A819B816115710589F1D1
:103B1000FB0193838283FE0111C0408151810281A8
:103B2000138148175907E0F04817590799F410977F
:103B300061F012960C93129713961C933296CF0154
:103B4000DF91CF911F910F91089500933C05109341
:103B50003D05F4CF2115310551F04217530738F0D8
:103B6000A901DB019A01BD01DF01F801C1CFEF011D
:103B7000F9CF90933D0580933C05CDCFFE01E20F38
:103B8000F31F819391932250310939832883D7CF32
:103B900020913A0530913B05232B41F420910A01F5
:103BA00030910B0130933B0520933A052091080199
:103BB000309109012115310541F42DB73EB74091EF
:103BC0000C0150910D01241B350BE0913A05F09149
:103BD0003B05E217F307A0F42E1B3F0B281739070C
:103BE00078F0AC014E5F5F4F2417350748F04E0F59
:103BF0005F1F50933B0540933A05819391939FCF6C
:103C0000F0E0E0E09CCFCF93DF930097E9F0FC0178
:103C1000329713821282A0913C05B0913D05ED01CF
:103C200030E020E01097A1F420813181820F931FB2
:103C300020913A0530913B052817390709F061C0FA
:103C4000F0933B05E0933A05DF91CF910895EA01A7
:103C5000CE17DF07E8F54A815B819E0141155105CA
:103C6000B1F7E901FB83EA8349915991C40FD51F4C
:103C7000EC17FD0761F4808191810296840F951FF6
:103C8000E90199838883828193819B838A83F0E011
:103C9000E0E012968D919C9113970097B9F52D91C4
:103CA0003C911197CD010296820F931F20913A0506
:103CB00030913B052817390739F6309751F51092A6
:103CC0003D0510923C05B0933B05A0933A05BCCF4F
:103CD000D383C28340815181840F951FC817D907B0
:103CE00061F44E5F5F4F88819981480F591F51835E
:103CF00040838A819B81938382832115310509F05A
:103D0000B0CFF0933D05E0933C059ECFFD01DC0173
:103D1000C0CF13821282D7CFB0E0A0E0E2E9FEE18B
:103D20000C94EF1C8C01009751F4CB010E94671D8D
:103D30008C01C801CDB7DEB7E0E10C940B1DFC018E
:103D4000E60FF71F9C0122503109E217F30708F430
:103D50009DC0D901CD91DC911197C617D70798F076
:103D6000C530D10530F3CE0104978617970708F3C5
:103D7000C61BD70B2297C193D1936D937C93CF0130
:103D80000E94031ED6CF5B01AC1ABD0A4C018C0EFB
:103D90009D1EA0913C05B0913D05512C412CF12C6C
:103DA000E12C109731F580913A0590913B058815EB
:103DB000990509F05CC04616570608F058C0809176
:103DC000080190910901009741F48DB79EB7409189
:103DD0000C0150910D01841B950BE817F90708F0B1
:103DE00055C0F0933B05E0933A05F9017183608378
:103DF000A0CF8D919C91119712966C90129713966B
:103E00007C901397A815B90559F56C0142E0C40ED2
:103E1000D11CCA14DB0420F1AC014A195B09DA0198
:103E20001296159780F06282738251834083D90184
:103E30006D937C93E114F10471F0D7011396FC9318
:103E4000EE93129776CF22968C0F9D1FF9019183E6
:103E50008083F301EFCFF0933D05E0933C0569CFFC
:103E60004816590608F42C017D01D3019ACFCB01E5
:103E70000E94671D7C01009749F0AE01B8010E94C5
:103E8000511FC8010E94031E870153CF10E000E0BC
:103E900050CF9111089581568A5108F48052855867
:103EA0000895FB01DC0102C001900D924150504089
:103EB000D8F708956817790768F4FB01DC01E40F6F
:103EC000F51FA40FB51F02C002900E924150504042
:103ED000D8F708950C94511FFC018191861721F0A9
:103EE0008823D9F7992708953197CF010895FB01C9
:103EF000DC018D91019080190110D9F3990B08957F
:103F0000FB01DC0101900D920020E1F70895FB0117
:103F1000DC014150504030F08D910190801919F42E
:103F20000020B9F7881B990B0895FB01DC01415073
:103F3000504048F001900D920020C9F701C01D9239
:103F400041505040E0F70895FC0181E090E001907D
:103F5000061609F4CF010020D1F701970895FB015F
:103F600051915523A9F0BF01DC014D914517411135
:103F7000E1F759F4CD010190002049F04D91401531
:103F80004111C9F3FB014111EFCF81E090E00197AE
:103F9000089511E0C4EBD1E004C0FE010E94611D50
:103FA0002196C53BD107C9F7F894FFCFFFFF010069
:103FB0000100FFFF00003E058000000040001400EB
:103FC0005400466965737461000000000000000041
:103FD000000101010101010152656C616A61646FB8
:103FE00000000000000000000000000000004E6F14
:103FF0006368650000000000000000000000000091
:1040000000000000546F646F204F4E00000000005D
:1040100000000001010101010100546F646F204F95
:104020004646000000000000000000000000000004
:10403000000000004804A803D50395040604E40327
:10404000F803000000000407D7064607CD04D00699
:10405000BD06AE06000000002008A803460747037F
:1040600000000000CE04A8034607CD042A05400541
:10407000B5040D0A004552524F52004D6F646F3A1D
:104080002000563A00204C45443A0056656E74694B
:104090006C61646F723A20004C4544533A20004FE3
:1040A00046460046414C4C4F20454550524F4D002E
:1040B000435553544F4D0041504147415220544FB6
:1040C000444F000D006D6F646F5F666965737461C6
:1040D000006D6F646F5F72656C616A61646F006D23
:1040E0006F646F5F6E6F63686500656E63656E64B5
:1040F00065725F746F646F006170616761725F7495
:104100006F646F002F2F00636F6E665F696E6900CA
:10411000636F6E663A66696E00475541524441448A
:1041200041004F4B00434F4E464947006D6F646F4F
:104130005F637573746F6D3A0056656E74696C6178
:10414000646F723A004C454427533A00416C7465E1
:10415000726E616E646F73650073616C613A4F4E8D
:1041600000636F6D65646F723A4F4E00636F6369F1
:104170006E613A4F4E006261C3B16F3A4F4E0062BA
:10418000616E6F3A4F4E0068616269746163696F76
:104190006E3A4F4E00477561726461646F3A200059
:1041A000477561726461646F20437573746F6D3A13
:0E41B0002000414C5445524E414E444F0000F9
:107E0000112484B714BE81FFF0D085E080938100F7
:107E100082E08093C00088E18093C10086E0809377
:107E2000C20080E18093C4008EE0C9D0259A86E02C
:107E300020E33CEF91E0309385002093840096BBD3
:107E4000B09BFECF1D9AA8958150A9F7CC24DD24C4
:107E500088248394B5E0AB2EA1E19A2EF3E0BF2EE7
:107E6000A2D0813461F49FD0082FAFD0023811F036
:107E7000013811F484E001C083E08DD089C08234E0
:107E800011F484E103C0853419F485E0A6D080C0E4
:107E9000853579F488D0E82EFF2485D0082F10E0AE
:107EA000102F00270E291F29000F111F8ED06801E7
:107EB0006FC0863521F484E090D080E0DECF843638
:107EC00009F040C070D06FD0082F6DD080E0C81688
:107ED00080E7D80618F4F601B7BEE895C0E0D1E017
:107EE00062D089930C17E1F7F0E0CF16F0E7DF06D8
:107EF00018F0F601B7BEE89568D007B600FCFDCFD4
:107F0000A601A0E0B1E02C9130E011968C91119780
:107F100090E0982F8827822B932B1296FA010C0160
:107F200087BEE89511244E5F5F4FF1E0A038BF0790
:107F300051F7F601A7BEE89507B600FCFDCF97BE46
:107F4000E89526C08437B1F42ED02DD0F82E2BD052
:107F50003CD0F601EF2C8F010F5F1F4F84911BD097
:107F6000EA94F801C1F70894C11CD11CFA94CF0C13
:107F7000D11C0EC0853739F428D08EE10CD085E9AC
:107F80000AD08FE07ACF813511F488E018D01DD067
:107F900080E101D065CF982F8091C00085FFFCCF94
:107FA0009093C60008958091C00087FFFCCF809118
:107FB000C00084FD01C0A8958091C6000895E0E648
:107FC000F0E098E1908380830895EDDF803219F02E
:107FD00088E0F5DFFFCF84E1DECF1F93182FE3DFCA
:107FE0001150E9F7F2DF1F91089580E0E8DFEE27F6
:047FF000FF270994CA
:027FFE00040479
:00000001FF
